{
  "abi": [
    {
      "type": "constructor",
      "inputs": [
        {
          "name": "identityVerificationHubAddress",
          "type": "address",
          "internalType": "address"
        },
        {
          "name": "scopeSeed",
          "type": "string",
          "internalType": "string"
        },
        {
          "name": "_celoSender",
          "type": "address",
          "internalType": "contract ICeloSender"
        },
        {
          "name": "_baseReceiver",
          "type": "address",
          "internalType": "contract IBaseReceiver"
        },
        {
          "name": "_mailbox",
          "type": "address",
          "internalType": "contract IMailbox"
        },
        {
          "name": "_openbandsV2GasFeePayer",
          "type": "address",
          "internalType": "contract OpenbandsV2GasFeePayer"
        }
      ],
      "stateMutability": "nonpayable"
    },
    {
      "type": "receive",
      "stateMutability": "payable"
    },
    {
      "type": "function",
      "name": "BASE_MAINNET_DOMAIN",
      "inputs": [],
      "outputs": [
        {
          "name": "",
          "type": "uint32",
          "internalType": "uint32"
        }
      ],
      "stateMutability": "view"
    },
    {
      "type": "function",
      "name": "baseReceiver",
      "inputs": [],
      "outputs": [
        {
          "name": "",
          "type": "address",
          "internalType": "contract IBaseReceiver"
        }
      ],
      "stateMutability": "view"
    },
    {
      "type": "function",
      "name": "celoSender",
      "inputs": [],
      "outputs": [
        {
          "name": "",
          "type": "address",
          "internalType": "contract ICeloSender"
        }
      ],
      "stateMutability": "view"
    },
    {
      "type": "function",
      "name": "getAllVerifiedUsers",
      "inputs": [],
      "outputs": [
        {
          "name": "",
          "type": "address[]",
          "internalType": "address[]"
        }
      ],
      "stateMutability": "view"
    },
    {
      "type": "function",
      "name": "getConfigId",
      "inputs": [
        {
          "name": "",
          "type": "bytes32",
          "internalType": "bytes32"
        },
        {
          "name": "",
          "type": "bytes32",
          "internalType": "bytes32"
        },
        {
          "name": "",
          "type": "bytes",
          "internalType": "bytes"
        }
      ],
      "outputs": [
        {
          "name": "",
          "type": "bytes32",
          "internalType": "bytes32"
        }
      ],
      "stateMutability": "view"
    },
    {
      "type": "function",
      "name": "getNationalityRecord",
      "inputs": [
        {
          "name": "_user",
          "type": "address",
          "internalType": "address"
        }
      ],
      "outputs": [
        {
          "name": "",
          "type": "tuple",
          "internalType": "struct OpenbandsV2NationalityRegistry.NationalityRecord",
          "components": [
            {
              "name": "nationality",
              "type": "string",
              "internalType": "string"
            },
            {
              "name": "isValidNationality",
              "type": "bool",
              "internalType": "bool"
            },
            {
              "name": "verifiedAt",
              "type": "uint256",
              "internalType": "uint256"
            },
            {
              "name": "isActive",
              "type": "bool",
              "internalType": "bool"
            },
            {
              "name": "chainId",
              "type": "uint256",
              "internalType": "uint256"
            },
            {
              "name": "userAddress",
              "type": "address",
              "internalType": "address"
            }
          ]
        }
      ],
      "stateMutability": "view"
    },
    {
      "type": "function",
      "name": "getScope",
      "inputs": [],
      "outputs": [
        {
          "name": "",
          "type": "uint256",
          "internalType": "uint256"
        }
      ],
      "stateMutability": "view"
    },
    {
      "type": "function",
      "name": "getUserNationality",
      "inputs": [
        {
          "name": "_user",
          "type": "address",
          "internalType": "address"
        }
      ],
      "outputs": [
        {
          "name": "",
          "type": "string",
          "internalType": "string"
        }
      ],
      "stateMutability": "view"
    },
    {
      "type": "function",
      "name": "isUserVerified",
      "inputs": [
        {
          "name": "_user",
          "type": "address",
          "internalType": "address"
        }
      ],
      "outputs": [
        {
          "name": "",
          "type": "bool",
          "internalType": "bool"
        }
      ],
      "stateMutability": "view"
    },
    {
      "type": "function",
      "name": "mailbox",
      "inputs": [],
      "outputs": [
        {
          "name": "",
          "type": "address",
          "internalType": "contract IMailbox"
        }
      ],
      "stateMutability": "view"
    },
    {
      "type": "function",
      "name": "nationalityRecords",
      "inputs": [
        {
          "name": "",
          "type": "address",
          "internalType": "address"
        }
      ],
      "outputs": [
        {
          "name": "nationality",
          "type": "string",
          "internalType": "string"
        },
        {
          "name": "isValidNationality",
          "type": "bool",
          "internalType": "bool"
        },
        {
          "name": "verifiedAt",
          "type": "uint256",
          "internalType": "uint256"
        },
        {
          "name": "isActive",
          "type": "bool",
          "internalType": "bool"
        },
        {
          "name": "chainId",
          "type": "uint256",
          "internalType": "uint256"
        },
        {
          "name": "userAddress",
          "type": "address",
          "internalType": "address"
        }
      ],
      "stateMutability": "view"
    },
    {
      "type": "function",
      "name": "onVerificationSuccess",
      "inputs": [
        {
          "name": "output",
          "type": "bytes",
          "internalType": "bytes"
        },
        {
          "name": "userData",
          "type": "bytes",
          "internalType": "bytes"
        }
      ],
      "outputs": [],
      "stateMutability": "nonpayable"
    },
    {
      "type": "function",
      "name": "openbandsV2GasFeePayer",
      "inputs": [],
      "outputs": [
        {
          "name": "",
          "type": "address",
          "internalType": "contract OpenbandsV2GasFeePayer"
        }
      ],
      "stateMutability": "view"
    },
    {
      "type": "function",
      "name": "owner",
      "inputs": [],
      "outputs": [
        {
          "name": "",
          "type": "address",
          "internalType": "address"
        }
      ],
      "stateMutability": "view"
    },
    {
      "type": "function",
      "name": "renounceOwnership",
      "inputs": [],
      "outputs": [],
      "stateMutability": "nonpayable"
    },
    {
      "type": "function",
      "name": "revokeVerification",
      "inputs": [
        {
          "name": "_user",
          "type": "address",
          "internalType": "address"
        }
      ],
      "outputs": [],
      "stateMutability": "nonpayable"
    },
    {
      "type": "function",
      "name": "scope",
      "inputs": [],
      "outputs": [
        {
          "name": "",
          "type": "uint256",
          "internalType": "uint256"
        }
      ],
      "stateMutability": "view"
    },
    {
      "type": "function",
      "name": "setConfigId",
      "inputs": [
        {
          "name": "configId",
          "type": "bytes32",
          "internalType": "bytes32"
        }
      ],
      "outputs": [],
      "stateMutability": "nonpayable"
    },
    {
      "type": "function",
      "name": "totalActiveVerifications",
      "inputs": [],
      "outputs": [
        {
          "name": "",
          "type": "uint256",
          "internalType": "uint256"
        }
      ],
      "stateMutability": "view"
    },
    {
      "type": "function",
      "name": "transferOwnership",
      "inputs": [
        {
          "name": "newOwner",
          "type": "address",
          "internalType": "address"
        }
      ],
      "outputs": [],
      "stateMutability": "nonpayable"
    },
    {
      "type": "function",
      "name": "verificationConfig",
      "inputs": [],
      "outputs": [
        {
          "name": "olderThanEnabled",
          "type": "bool",
          "internalType": "bool"
        },
        {
          "name": "olderThan",
          "type": "uint256",
          "internalType": "uint256"
        },
        {
          "name": "forbiddenCountriesEnabled",
          "type": "bool",
          "internalType": "bool"
        }
      ],
      "stateMutability": "view"
    },
    {
      "type": "function",
      "name": "verificationConfigId",
      "inputs": [],
      "outputs": [
        {
          "name": "",
          "type": "bytes32",
          "internalType": "bytes32"
        }
      ],
      "stateMutability": "view"
    },
    {
      "type": "function",
      "name": "verifiedUsers",
      "inputs": [
        {
          "name": "",
          "type": "uint256",
          "internalType": "uint256"
        }
      ],
      "outputs": [
        {
          "name": "",
          "type": "address",
          "internalType": "address"
        }
      ],
      "stateMutability": "view"
    },
    {
      "type": "function",
      "name": "verifySelfProof",
      "inputs": [
        {
          "name": "proofPayload",
          "type": "bytes",
          "internalType": "bytes"
        },
        {
          "name": "userContextData",
          "type": "bytes",
          "internalType": "bytes"
        }
      ],
      "outputs": [],
      "stateMutability": "nonpayable"
    },
    {
      "type": "event",
      "name": "NationalityVerified",
      "inputs": [
        {
          "name": "user",
          "type": "address",
          "indexed": true,
          "internalType": "address"
        },
        {
          "name": "nationality",
          "type": "string",
          "indexed": false,
          "internalType": "string"
        },
        {
          "name": "messageId",
          "type": "bytes32",
          "indexed": false,
          "internalType": "bytes32"
        },
        {
          "name": "timestamp",
          "type": "uint256",
          "indexed": false,
          "internalType": "uint256"
        }
      ],
      "anonymous": false
    },
    {
      "type": "event",
      "name": "NativeTokenReceived",
      "inputs": [
        {
          "name": "user",
          "type": "address",
          "indexed": true,
          "internalType": "address"
        },
        {
          "name": "amount",
          "type": "uint256",
          "indexed": false,
          "internalType": "uint256"
        }
      ],
      "anonymous": false
    },
    {
      "type": "event",
      "name": "OwnershipTransferred",
      "inputs": [
        {
          "name": "previousOwner",
          "type": "address",
          "indexed": true,
          "internalType": "address"
        },
        {
          "name": "newOwner",
          "type": "address",
          "indexed": true,
          "internalType": "address"
        }
      ],
      "anonymous": false
    },
    {
      "type": "event",
      "name": "RecordRevoked",
      "inputs": [
        {
          "name": "user",
          "type": "address",
          "indexed": true,
          "internalType": "address"
        },
        {
          "name": "timestamp",
          "type": "uint256",
          "indexed": false,
          "internalType": "uint256"
        }
      ],
      "anonymous": false
    },
    {
      "type": "error",
      "name": "InvalidDataFormat",
      "inputs": []
    },
    {
      "type": "error",
      "name": "InvalidNationality",
      "inputs": []
    },
    {
      "type": "error",
      "name": "InvalidUserIdentifier",
      "inputs": []
    },
    {
      "type": "error",
      "name": "OwnableInvalidOwner",
      "inputs": [
        {
          "name": "owner",
          "type": "address",
          "internalType": "address"
        }
      ]
    },
    {
      "type": "error",
      "name": "OwnableUnauthorizedAccount",
      "inputs": [
        {
          "name": "account",
          "type": "address",
          "internalType": "address"
        }
      ]
    },
    {
      "type": "error",
      "name": "UnauthorizedCaller",
      "inputs": []
    }
  ],
  "bytecode": {
    "object": "0x60a060405234801561000f575f5ffd5b50604051612f40380380612f4083398101604081905261002e91610b86565b336001600160a01b0387166080528686610050308261004b610201565b610254565b5f5550506001600160a01b03811661008257604051631e4fbdf760e01b81525f60048201526024015b60405180910390fd5b61008b8161030b565b50600280546001600160a01b03199081166001600160a01b038781169190911790925560038054821686841617905560048054821685841617905560058054909116918316919091179055604080515f8082526020820190925281610100565b60608152602001906001900390816100eb5790505b50604080516060810182525f80825260208201849052918101919091529091506101298161035c565b80516009805491151560ff199283161781556020830151600a556040830151600b80549115159190931617909155606082015161016a90600c9060046109f8565b5060808201516101809060078301906003610a36565b50506040516309ddb09160e01b81526001600160a01b038a1691506309ddb091906101b090600990600401610c89565b6020604051808303815f875af11580156101cc573d5f5f3e3d5ffd5b505050506040513d601f19601f820116820180604052508101906101f09190610d10565b60115550610e269650505050505050565b5f4661a4ec8190036102285773f134707a4c4a3a76b8410fc0294d620a7c34158191505090565b8062aa044c0361024d57730a782f7f9f8aac6e0bacaf3cd4aa292c3275c6f291505090565b5f91505090565b5f6001600160a01b03821661026a57505f610304565b5f61027585846103ce565b90505f6102818561048d565b604080518082018252848152602081018390529051632b0aac7f60e11b81529192506001600160a01b0386169163561558fe916102c091600401610d27565b602060405180830381865afa1580156102db573d5f5f3e3d5ffd5b505050506040513d601f19601f820116820180604052508101906102ff9190610d10565b925050505b9392505050565b600180546001600160a01b038381166001600160a01b0319831681179093556040519116919082907f8be0079c531659141344cd1fd0a4f28419497f9722a3daafe3b4186f6b6457e0905f90a35050565b610364610ac0565b61036c610afb565b6040838101805115158352805115156020808501919091529051151583830152815160a081018352855115158152855181830152908501805151151592820192909252905160608201906103bf9061059e565b81526020019190915292915050565b5f806103d98461075e565b90505f6103f06103eb8383601f610938565b61048d565b90505f6104036103eb84601f602a610938565b604080518082018252848152602081018390529051632b0aac7f60e11b81529192506001600160a01b0387169163561558fe9161044291600401610d27565b602060405180830381865afa15801561045d573d5f5f3e3d5ffd5b505050506040513d601f19601f820116820180604052508101906104819190610d10565b93505050505b92915050565b5f5f829050601f815111156104f25760405162461bcd60e51b815260206004820152602560248201527f537472696e6720746f6f206c6f6e6720666f7220426967496e7420636f6e76656044820152643939b4b7b760d91b6064820152608401610079565b5f805b825181101561059657607f83828151811061051257610512610d57565b016020015160f81c11156105685760405162461bcd60e51b815260206004820152601c60248201527f4e6f6e2d415343494920636861726163746572206465746563746564000000006044820152606401610079565b82818151811061057a5761057a610d57565b60209101015160f81c60089290921b91909117906001016104f5565b509392505050565b6105a6610b19565b601f600460605f5b8551811015610679575f8682815181106105ca576105ca610d57565b60200260200101519050805160031461064b5760405162461bcd60e51b815260206004820152603760248201527f496e76616c696420636f756e74727920636f64653a206d75737420626520657860448201527f6163746c7920332063686172616374657273206c6f6e670000000000000000006064820152608401610079565b828160405160200161065e929190610d82565b60408051601f198184030181529190529250506001016105ae565b508051835f81600161068b8286610db2565b6106959190610dc5565b61069f9190610dd8565b90505f5b81811080156106b157508581105b15610752575f805b84811015610726575f816106cd8588610df7565b6106d79190610db2565b90508681101561071d575f8882815181106106f4576106f4610d57565b016020015160f81c90505f61070a846008610df7565b905061071882821b86610db2565b945050505b506001016106b9565b508089836004811061073a5761073a610d57565b6020020152508061074a81610e0e565b9150506106a3565b50505050505050919050565b604080518082018252601081526f181899199a1a9b1b9c1cb0b131b232b360811b60208201528151602a80825260608281019094526001600160a01b03851692915f91602082018180368337019050509050600360fc1b815f815181106107c7576107c7610d57565b60200101906001600160f81b03191690815f1a905350600f60fb1b816001815181106107f5576107f5610d57565b60200101906001600160f81b03191690815f1a9053505f5b601481101561092f578260048561082584600c610db2565b6020811061083557610835610d57565b1a60f81b6001600160f81b031916901c60f81c60ff168151811061085b5761085b610d57565b01602001516001600160f81b03191682610876836002610df7565b610881906002610db2565b8151811061089157610891610d57565b60200101906001600160f81b03191690815f1a90535082846108b483600c610db2565b602081106108c4576108c4610d57565b825191901a600f169081106108db576108db610d57565b01602001516001600160f81b031916826108f6836002610df7565b610901906003610db2565b8151811061091157610911610d57565b60200101906001600160f81b03191690815f1a90535060010161080d565b50949350505050565b6060835f6109468585610dc5565b6001600160401b0381111561095d5761095d610b62565b6040519080825280601f01601f191660200182016040528015610987576020820181803683370190505b509050845b848110156109ee578281815181106109a6576109a6610d57565b01602001516001600160f81b031916826109c08884610dc5565b815181106109d0576109d0610d57565b60200101906001600160f81b03191690815f1a90535060010161098c565b5095945050505050565b8260048101928215610a26579160200282015b82811115610a26578251825591602001919060010190610a0b565b50610a32929150610b37565b5090565b600183019183908215610a26579160200282015f5b83821115610a8757835183826101000a81548160ff02191690831515021790555092602001926001016020815f01049283019260010302610a4b565b8015610ab35782816101000a81549060ff02191690556001016020815f01049283019260010302610a87565b5050610a32929150610b37565b6040518060a001604052805f151581526020015f81526020015f15158152602001610ae9610b19565b8152602001610af6610afb565b905290565b60405180606001604052806003906020820280368337509192915050565b60405180608001604052806004906020820280368337509192915050565b5b80821115610a32575f8155600101610b38565b6001600160a01b0381168114610b5f575f5ffd5b50565b634e487b7160e01b5f52604160045260245ffd5b8051610b8181610b4b565b919050565b5f5f5f5f5f5f60c08789031215610b9b575f5ffd5b8651610ba681610b4b565b60208801519096506001600160401b03811115610bc1575f5ffd5b8701601f81018913610bd1575f5ffd5b80516001600160401b03811115610bea57610bea610b62565b604051601f8201601f19908116603f011681016001600160401b0381118282101715610c1857610c18610b62565b6040528181528282016020018b1015610c2f575f5ffd5b8160208401602083015e5f60208383010152809750505050610c5360408801610b76565b9350610c6160608801610b76565b9250610c6f60808801610b76565b9150610c7d60a08801610b76565b90509295509295509295565b815460ff908116151582526001830154602083015260028301541615156040820152610140810160608201600384015f5b6004811015610cd9578154835260209092019160019182019101610cba565b505050600783015460ff808216151560e0850152600882901c8116151561010085015260109190911c161515610120830152610487565b5f60208284031215610d20575f5ffd5b5051919050565b6040810181835f5b6002811015610d4e578151835260209283019290910190600101610d2f565b50505092915050565b634e487b7160e01b5f52603260045260245ffd5b5f81518060208401855e5f93019283525090919050565b5f610d96610d908386610d6b565b84610d6b565b949350505050565b634e487b7160e01b5f52601160045260245ffd5b8082018082111561048757610487610d9e565b8181038181111561048757610487610d9e565b5f82610df257634e487b7160e01b5f52601260045260245ffd5b500490565b808202811582820484141761048757610487610d9e565b5f60018201610e1f57610e1f610d9e565b5060010190565b6080516120fb610e455f395f81816108af0152610ba001526120fb5ff3fe608060405260043610610186575f3560e01c80638da5cb5b116100d1578063c17933521161007c578063d5438eae11610057578063d5438eae146104e5578063e998d2fa14610511578063f2fde38b14610530575f5ffd5b8063c179335214610476578063c385abae146104a7578063d161802b146104c6575f5ffd5b8063ada1b319116100ac578063ada1b31914610411578063b1b49a2714610435578063bb44374414610461575f5ffd5b80638da5cb5b146103b8578063951cfa47146102ee578063ace417e0146103e2575f5ffd5b80636e62d0a8116101315780638440aafe1161010c5780638440aafe146103415780638964d2b21461036d5780638d2d8d6a14610399575f5ffd5b80636e62d0a8146102ee578063715018a6146103015780637b4bb5de14610317575f5ffd5b80632a9ac82b116101615780632a9ac82b1461027557806344b9fe8b146102a157806354d8b38f146102c2575f5ffd5b80630114f69e146101c6578063037b410e146101ee57806307763ec314610231575f5ffd5b366101c25760405134815233907f9820dd13494dd7d9f03807aa0bb724fe8266855b5ac4db99848a199904f8074b9060200160405180910390a2005b5f5ffd5b3480156101d1575f5ffd5b506101db60085481565b6040519081526020015b60405180910390f35b3480156101f9575f5ffd5b50600954600a54600b546102129260ff90811692911683565b60408051931515845260208401929092521515908201526060016101e5565b34801561023c575f5ffd5b5061025061024b3660046114b7565b61054f565b60405173ffffffffffffffffffffffffffffffffffffffff90911681526020016101e5565b348015610280575f5ffd5b506005546102509073ffffffffffffffffffffffffffffffffffffffff1681565b3480156102ac575f5ffd5b506102b5610584565b6040516101e591906114ce565b3480156102cd575f5ffd5b506102e16102dc366004611526565b6105f1565b6040516101e591906115ac565b3480156102f9575f5ffd5b505f546101db565b34801561030c575f5ffd5b50610315610739565b005b348015610322575f5ffd5b5061032c61210581565b60405163ffffffff90911681526020016101e5565b34801561034c575f5ffd5b506003546102509073ffffffffffffffffffffffffffffffffffffffff1681565b348015610378575f5ffd5b5061038c610387366004611526565b61074c565b6040516101e5919061161f565b3480156103a4575f5ffd5b506103156103b336600461176e565b610897565b3480156103c3575f5ffd5b5060015473ffffffffffffffffffffffffffffffffffffffff16610250565b3480156103ed575f5ffd5b506104016103fc366004611526565b61092c565b60405190151581526020016101e5565b34801561041c575f5ffd5b506101db61042b3660046117d3565b6011549392505050565b348015610440575f5ffd5b506002546102509073ffffffffffffffffffffffffffffffffffffffff1681565b34801561046c575f5ffd5b506101db60115481565b348015610481575f5ffd5b50610495610490366004611526565b610990565b6040516101e59695949392919061181f565b3480156104b2575f5ffd5b506103156104c13660046114b7565b610a66565b3480156104d1575f5ffd5b506103156104e03660046118b5565b610a73565b3480156104f0575f5ffd5b506004546102509073ffffffffffffffffffffffffffffffffffffffff1681565b34801561051c575f5ffd5b5061031561052b366004611526565b610c55565b34801561053b575f5ffd5b5061031561054a366004611526565b610da1565b6007818154811061055e575f80fd5b5f9182526020909120015473ffffffffffffffffffffffffffffffffffffffff16905081565b606060078054806020026020016040519081016040528092919081815260200182805480156105e757602002820191905f5260205f20905b815473ffffffffffffffffffffffffffffffffffffffff1681526001909101906020018083116105bc575b5050505050905090565b6040805160c08101825260608082525f6020830181905292820183905281018290526080810182905260a081019190915273ffffffffffffffffffffffffffffffffffffffff82165f9081526006602052604090819020815160c0810190925280548290829061066090611921565b80601f016020809104026020016040519081016040528092919081815260200182805461068c90611921565b80156106d75780601f106106ae576101008083540402835291602001916106d7565b820191905f5260205f20905b8154815290600101906020018083116106ba57829003601f168201915b5050509183525050600182015460ff9081161515602083015260028301546040830152600383015416151560608201526004820154608082015260059091015473ffffffffffffffffffffffffffffffffffffffff1660a09091015292915050565b610741610e04565b61074a5f610e57565b565b73ffffffffffffffffffffffffffffffffffffffff81165f9081526006602052604090206003015460609060ff166107e5576040517f08c379a000000000000000000000000000000000000000000000000000000000815260206004820152601160248201527f55736572206e6f7420766572696669656400000000000000000000000000000060448201526064015b60405180910390fd5b73ffffffffffffffffffffffffffffffffffffffff82165f908152600660205260409020805461081490611921565b80601f016020809104026020016040519081016040528092919081815260200182805461084090611921565b801561088b5780601f106108625761010080835404028352916020019161088b565b820191905f5260205f20905b81548152906001019060200180831161086e57829003601f168201915b50505050509050919050565b3373ffffffffffffffffffffffffffffffffffffffff7f00000000000000000000000000000000000000000000000000000000000000001614610906576040517f5c427cd900000000000000000000000000000000000000000000000000000000815260040160405180910390fd5b5f8280602001905181019061091b9190611af8565b90506109278183610ecd565b505050565b73ffffffffffffffffffffffffffffffffffffffff81165f9081526006602052604081206003015460ff16801561098a575073ffffffffffffffffffffffffffffffffffffffff82165f9081526006602052604090206001015460ff165b92915050565b60066020525f90815260409020805481906109aa90611921565b80601f01602080910402602001604051908101604052809291908181526020018280546109d690611921565b8015610a215780601f106109f857610100808354040283529160200191610a21565b820191905f5260205f20905b815481529060010190602001808311610a0457829003601f168201915b5050506001840154600285015460038601546004870154600590970154959660ff938416969295509216925073ffffffffffffffffffffffffffffffffffffffff1686565b610a6e610e04565b601155565b6020831015610aae576040517fa512e2ff00000000000000000000000000000000000000000000000000000000815260040160405180910390fd5b6040811015610ae9576040517fa512e2ff00000000000000000000000000000000000000000000000000000000815260040160405180910390fd5b83355f610af96020828587611cc0565b610b0291611ce7565b90505f610b13604060208688611cc0565b610b1c91611ce7565b90505f610b2c8560408189611cc0565b8080601f0160208091040260200160405190810160405280939291908181526020018383808284375f920182905250601154949550939250610b6c915050565b90505f60025f60081b5f548c8c604051602001610b8d959493929190611d04565b60405160208183030381529060405290507f000000000000000000000000000000000000000000000000000000000000000073ffffffffffffffffffffffffffffffffffffffff1663f7e83aee82848b8b604051602001610bf093929190611d72565b6040516020818303038152906040526040518363ffffffff1660e01b8152600401610c1c929190611d8b565b5f604051808303815f87803b158015610c33575f5ffd5b505af1158015610c45573d5f5f3e3d5ffd5b5050505050505050505050505050565b610c5d610e04565b73ffffffffffffffffffffffffffffffffffffffff81165f9081526006602052604090206003015460ff16610cee576040517f08c379a000000000000000000000000000000000000000000000000000000000815260206004820152600f60248201527f55736572206e6f7420616374697665000000000000000000000000000000000060448201526064016107dc565b73ffffffffffffffffffffffffffffffffffffffff81165f90815260066020526040812060030180547fffffffffffffffffffffffffffffffffffffffffffffffffffffffffffffff001690556008805491610d4983611ddc565b91905055508073ffffffffffffffffffffffffffffffffffffffff167f867ee34e7b32b226f87f4418c683b900d2c5b5ca18afd3012ed61824b530662a42604051610d9691815260200190565b60405180910390a250565b610da9610e04565b73ffffffffffffffffffffffffffffffffffffffff8116610df8576040517f1e4fbdf70000000000000000000000000000000000000000000000000000000081525f60048201526024016107dc565b610e0181610e57565b50565b60015473ffffffffffffffffffffffffffffffffffffffff16331461074a576040517f118cdaa70000000000000000000000000000000000000000000000000000000081523360048201526024016107dc565b6001805473ffffffffffffffffffffffffffffffffffffffff8381167fffffffffffffffffffffffff0000000000000000000000000000000000000000831681179093556040519116919082907f8be0079c531659141344cd1fd0a4f28419497f9722a3daafe3b4186f6b6457e0905f90a35050565b60208201515f819003610f0c576040517ff0c426db00000000000000000000000000000000000000000000000000000000815260040160405180910390fd5b60e083015180511580610f20575060038151115b15610f57576040517f3b13a15600000000000000000000000000000000000000000000000000000000815260040160405180910390fd5b73ffffffffffffffffffffffffffffffffffffffff82165f8181526006602081815260408084206003810154825160c08101845288815260018186018190524294820194909452606081019390935246608084015260a0830187905295909452919052805160ff9093168015939092908190610fd39082611e3c565b5060208201516001820180549115157fffffffffffffffffffffffffffffffffffffffffffffffffffffffffffffff00928316179055604083015160028301556060830151600383018054911515919092161790556080820151600482015560a0909101516005909101805473ffffffffffffffffffffffffffffffffffffffff9092167fffffffffffffffffffffffff00000000000000000000000000000000000000009092169190911790555f61108b85611178565b9050821561110357600780546001810182555f919091527fa66cc928b5edb82af9bd49922954155ab7b0942694bea4ce44661d9a8736c6880180547fffffffffffffffffffffffff00000000000000000000000000000000000000001673ffffffffffffffffffffffffffffffffffffffff87161790555b8161111d5760088054905f61111783611f15565b91905055505b8473ffffffffffffffffffffffffffffffffffffffff167fdf8e126b75d0ef74eee52e451f6a711140715933d1f8f787bcd9313a06ed4e7585834260405161116793929190611f2d565b60405180910390a250505050505050565b6004546003545f91829173ffffffffffffffffffffffffffffffffffffffff91821691639c42bd189162014a34911673ffffffffffffffffffffffffffffffffffffffff87165f9081526006602090815260409182902091516111dc929101611f51565b6040516020818303038152906040526040518463ffffffff1660e01b815260040161120993929190612054565b602060405180830381865afa158015611224573d5f5f3e3d5ffd5b505050506040513d601f19601f820116820180604052508101906112489190612078565b6005546040517fc158cd450000000000000000000000000000000000000000000000000000000081523060048201526024810183905291925073ffffffffffffffffffffffffffffffffffffffff169063c158cd45906044015f604051808303815f87803b1580156112b8575f5ffd5b505af11580156112ca573d5f5f3e3d5ffd5b50505050804710156113aa576040517f08c379a000000000000000000000000000000000000000000000000000000000815260206004820152607060248201527f496e73756666696369656e74202443454c4f2062616c616e6365206f6620746860448201527f65204f70656e62616e647356324e6174696f6e616c697479526567697374727960648201527f20636f6e747261637420746f20636f76657220746865206d657373616765206660848201527f6565207669612048797065726c616e650000000000000000000000000000000060a482015260c4016107dc565b73ffffffffffffffffffffffffffffffffffffffff83165f90815260066020908152604080832090516113dd9201611f51565b604080517fffffffffffffffffffffffffffffffffffffffffffffffffffffffffffffffe0818403018152908290526002546003547f74944ef00000000000000000000000000000000000000000000000000000000084529193505f9273ffffffffffffffffffffffffffffffffffffffff918216926374944ef092879261146d9290911690879060040161208f565b60206040518083038185885af1158015611489573d5f5f3e3d5ffd5b50505050506040513d601f19601f820116820180604052508101906114ae9190612078565b95945050505050565b5f602082840312156114c7575f5ffd5b5035919050565b602080825282518282018190525f918401906040840190835b8181101561151b57835173ffffffffffffffffffffffffffffffffffffffff168352602093840193909201916001016114e7565b509095945050505050565b5f60208284031215611536575f5ffd5b813573ffffffffffffffffffffffffffffffffffffffff81168114611559575f5ffd5b9392505050565b5f81518084528060208401602086015e5f6020828601015260207fffffffffffffffffffffffffffffffffffffffffffffffffffffffffffffffe0601f83011685010191505092915050565b602081525f825160c060208401526115c760e0840182611560565b905060208401511515604084015260408401516060840152606084015115156080840152608084015160a084015273ffffffffffffffffffffffffffffffffffffffff60a08501511660c08401528091505092915050565b602081525f6115596020830184611560565b7f4e487b71000000000000000000000000000000000000000000000000000000005f52604160045260245ffd5b6040516101a0810167ffffffffffffffff8111828210171561168257611682611631565b60405290565b604051601f82017fffffffffffffffffffffffffffffffffffffffffffffffffffffffffffffffe016810167ffffffffffffffff811182821017156116cf576116cf611631565b604052919050565b5f67ffffffffffffffff8211156116f0576116f0611631565b50601f017fffffffffffffffffffffffffffffffffffffffffffffffffffffffffffffffe01660200190565b5f82601f83011261172b575f5ffd5b813561173e611739826116d7565b611688565b818152846020838601011115611752575f5ffd5b816020850160208301375f918101602001919091529392505050565b5f5f6040838503121561177f575f5ffd5b823567ffffffffffffffff811115611795575f5ffd5b6117a18582860161171c565b925050602083013567ffffffffffffffff8111156117bd575f5ffd5b6117c98582860161171c565b9150509250929050565b5f5f5f606084860312156117e5575f5ffd5b8335925060208401359150604084013567ffffffffffffffff811115611809575f5ffd5b6118158682870161171c565b9150509250925092565b60c081525f61183160c0830189611560565b96151560208301525060408101949094529115156060840152608083015273ffffffffffffffffffffffffffffffffffffffff1660a090910152919050565b5f5f83601f840112611880575f5ffd5b50813567ffffffffffffffff811115611897575f5ffd5b6020830191508360208285010111156118ae575f5ffd5b9250929050565b5f5f5f5f604085870312156118c8575f5ffd5b843567ffffffffffffffff8111156118de575f5ffd5b6118ea87828801611870565b909550935050602085013567ffffffffffffffff811115611909575f5ffd5b61191587828801611870565b95989497509550505050565b600181811c9082168061193557607f821691505b60208210810361196c577f4e487b71000000000000000000000000000000000000000000000000000000005f52602260045260245ffd5b50919050565b5f82601f830112611981575f5ffd5b61198b6080611688565b80608084018581111561199c575f5ffd5b845b8181101561151b57805184526020938401930161199e565b5f82601f8301126119c5575f5ffd5b81516119d3611739826116d7565b8181528460208386010111156119e7575f5ffd5b8160208501602083015e5f918101602001919091529392505050565b5f82601f830112611a12575f5ffd5b815167ffffffffffffffff811115611a2c57611a2c611631565b8060051b611a3c60208201611688565b91825260208185018101929081019086841115611a57575f5ffd5b6020860192505b83831015611a9d57825167ffffffffffffffff811115611a7c575f5ffd5b611a8b886020838a01016119b6565b83525060209283019290910190611a5e565b9695505050505050565b5f82601f830112611ab6575f5ffd5b611ac06060611688565b806060840185811115611ad1575f5ffd5b845b8181101561151b5780518015158114611aea575f5ffd5b845260209384019301611ad3565b5f60208284031215611b08575f5ffd5b815167ffffffffffffffff811115611b1e575f5ffd5b82016102408185031215611b30575f5ffd5b611b3861165e565b815181526020808301519082015260408083015190820152611b5d8560608401611972565b606082015260e082015167ffffffffffffffff811115611b7b575f5ffd5b611b87868285016119b6565b60808301525061010082015167ffffffffffffffff811115611ba7575f5ffd5b611bb386828501611a03565b60a08301525061012082015167ffffffffffffffff811115611bd3575f5ffd5b611bdf868285016119b6565b60c08301525061014082015167ffffffffffffffff811115611bff575f5ffd5b611c0b868285016119b6565b60e08301525061016082015167ffffffffffffffff811115611c2b575f5ffd5b611c37868285016119b6565b6101008301525061018082015167ffffffffffffffff811115611c58575f5ffd5b611c64868285016119b6565b610120830152506101a082015167ffffffffffffffff811115611c85575f5ffd5b611c91868285016119b6565b610140830152506101c0820151610160820152611cb2856101e08401611aa7565b610180820152949350505050565b5f5f85851115611cce575f5ffd5b83861115611cda575f5ffd5b5050820193919092039150565b8035602083101561098a575f19602084900360031b1b1692915050565b7fff000000000000000000000000000000000000000000000000000000000000008660f81b1681527fffffffffffffffffffffffffffffffffffffffffffffffffffffffffffffff0085166001820152836020820152818360408301375f9101604001908152949350505050565b838152818360208301375f910160200190815292915050565b604081525f611d9d6040830185611560565b82810360208401526114ae8185611560565b7f4e487b71000000000000000000000000000000000000000000000000000000005f52601160045260245ffd5b5f81611dea57611dea611daf565b505f190190565b601f82111561092757805f5260205f20601f840160051c81016020851015611e165750805b601f840160051c820191505b81811015611e35575f8155600101611e22565b5050505050565b815167ffffffffffffffff811115611e5657611e56611631565b611e6a81611e648454611921565b84611df1565b6020601f821160018114611e9c575f8315611e855750848201515b5f19600385901b1c1916600184901b178455611e35565b5f848152602081207fffffffffffffffffffffffffffffffffffffffffffffffffffffffffffffffe08516915b82811015611ee95787850151825560209485019460019092019101611ec9565b5084821015611f0657868401515f19600387901b60f8161c191681555b50505050600190811b01905550565b5f5f198203611f2657611f26611daf565b5060010190565b606081525f611f3f6060830186611560565b60208301949094525060400152919050565b6020815260c060208201525f5f8354611f6981611921565b8060e0860152600182165f8114611f875760018114611fc357611ff6565b7fffffffffffffffffffffffffffffffffffffffffffffffffffffffffffffff00831661010087015261010082151560051b8701019350611ff6565b865f5260205f205f5b83811015611fec5781548882016101000152600190910190602001611fcc565b8701610100019450505b505050600184015460ff908116151560408501526002850154606085015260038501541615156080840152600484015460a084015260059093015473ffffffffffffffffffffffffffffffffffffffff1660c0909201919091525090565b63ffffffff84168152826020820152606060408201525f6114ae6060830184611560565b5f60208284031215612088575f5ffd5b5051919050565b73ffffffffffffffffffffffffffffffffffffffff83168152604060208201525f6120bd6040830184611560565b94935050505056fea26469706673582212207fa3de30f921a3fcebee640af43ecdb8d96ecbbcf07c1ef4eefb4eb8bb68ae9d64736f6c634300081c0033",
    "linkReferences": {}
  },
  "methodIdentifiers": {
    "BASE_MAINNET_DOMAIN()": "7b4bb5de",
    "baseReceiver()": "8440aafe",
    "celoSender()": "b1b49a27",
    "getAllVerifiedUsers()": "44b9fe8b",
    "getConfigId(bytes32,bytes32,bytes)": "ada1b319",
    "getNationalityRecord(address)": "54d8b38f",
    "getScope()": "951cfa47",
    "getUserNationality(address)": "8964d2b2",
    "isUserVerified(address)": "ace417e0",
    "mailbox()": "d5438eae",
    "nationalityRecords(address)": "c1793352",
    "onVerificationSuccess(bytes,bytes)": "8d2d8d6a",
    "openbandsV2GasFeePayer()": "2a9ac82b",
    "owner()": "8da5cb5b",
    "renounceOwnership()": "715018a6",
    "revokeVerification(address)": "e998d2fa",
    "scope()": "6e62d0a8",
    "setConfigId(bytes32)": "c385abae",
    "totalActiveVerifications()": "0114f69e",
    "transferOwnership(address)": "f2fde38b",
    "verificationConfig()": "037b410e",
    "verificationConfigId()": "bb443744",
    "verifiedUsers(uint256)": "07763ec3",
    "verifySelfProof(bytes,bytes)": "d161802b"
  },
  "id": 51
}