{"abi":[{"type":"constructor","inputs":[{"name":"_zkJwtProofVerifier","type":"address","internalType":"contract ZkJwtProofVerifier"}],"stateMutability":"nonpayable"},{"type":"function","name":"getNullifiersByDomainAndEmailHashAndWalletAddress","inputs":[{"name":"domain","type":"string","internalType":"string"},{"name":"emailHash","type":"string","internalType":"string"},{"name":"walletAddress","type":"address","internalType":"address"}],"outputs":[{"name":"_nullifierHash","type":"bytes32","internalType":"bytes32"}],"stateMutability":"view"},{"type":"function","name":"getNullifiersByDomainAndWalletAddress","inputs":[{"name":"domain","type":"string","internalType":"string"},{"name":"walletAddress","type":"address","internalType":"address"}],"outputs":[{"name":"_nullifierHash","type":"bytes32","internalType":"bytes32"}],"stateMutability":"view"},{"type":"function","name":"getPublicInputsOfAllProofs","inputs":[],"outputs":[{"name":"","type":"tuple[]","internalType":"struct DataType.PublicInput[]","components":[{"name":"domain","type":"string","internalType":"string"},{"name":"nullifierHash","type":"bytes32","internalType":"bytes32"},{"name":"emailHash","type":"string","internalType":"string"},{"name":"walletAddress","type":"address","internalType":"address"},{"name":"createdAt","type":"string","internalType":"string"}]}],"stateMutability":"view"},{"type":"function","name":"getPublicInputsOfZkJwtProof","inputs":[{"name":"nullifierHash","type":"bytes32","internalType":"bytes32"}],"outputs":[{"name":"_publicInput","type":"tuple","internalType":"struct DataType.PublicInput","components":[{"name":"domain","type":"string","internalType":"string"},{"name":"nullifierHash","type":"bytes32","internalType":"bytes32"},{"name":"emailHash","type":"string","internalType":"string"},{"name":"walletAddress","type":"address","internalType":"address"},{"name":"createdAt","type":"string","internalType":"string"}]}],"stateMutability":"view"},{"type":"function","name":"isNullifierAlreadyStoredOnChain","inputs":[{"name":"nullifierHash","type":"bytes32","internalType":"bytes32"}],"outputs":[{"name":"","type":"bool","internalType":"bool"}],"stateMutability":"view"},{"type":"function","name":"nullifiers","inputs":[{"name":"nullifierHash","type":"bytes32","internalType":"bytes32"}],"outputs":[{"name":"isNullified","type":"bool","internalType":"bool"}],"stateMutability":"view"},{"type":"function","name":"nullifiersByDomainAndEmailHashAndWalletAddresses","inputs":[{"name":"domain","type":"string","internalType":"string"},{"name":"emailHash","type":"string","internalType":"string"},{"name":"walletAddress","type":"address","internalType":"address"}],"outputs":[{"name":"nullifierHash","type":"bytes32","internalType":"bytes32"}],"stateMutability":"view"},{"type":"function","name":"nullifiersByDomainAndWalletAddresses","inputs":[{"name":"domain","type":"string","internalType":"string"},{"name":"walletAddress","type":"address","internalType":"address"}],"outputs":[{"name":"nullifierHash","type":"bytes32","internalType":"bytes32"}],"stateMutability":"view"},{"type":"function","name":"publicInputsOfAllProofs","inputs":[{"name":"","type":"uint256","internalType":"uint256"}],"outputs":[{"name":"domain","type":"string","internalType":"string"},{"name":"nullifierHash","type":"bytes32","internalType":"bytes32"},{"name":"emailHash","type":"string","internalType":"string"},{"name":"walletAddress","type":"address","internalType":"address"},{"name":"createdAt","type":"string","internalType":"string"}],"stateMutability":"view"},{"type":"function","name":"publicInputsOfZkJwtProofs","inputs":[{"name":"nullifierHash","type":"bytes32","internalType":"bytes32"}],"outputs":[{"name":"domain","type":"string","internalType":"string"},{"name":"nullifierHash","type":"bytes32","internalType":"bytes32"},{"name":"emailHash","type":"string","internalType":"string"},{"name":"walletAddress","type":"address","internalType":"address"},{"name":"createdAt","type":"string","internalType":"string"}],"stateMutability":"view"},{"type":"function","name":"recordPublicInputsOfZkJwtProof","inputs":[{"name":"proof","type":"bytes","internalType":"bytes"},{"name":"publicInputs","type":"bytes32[]","internalType":"bytes32[]"},{"name":"separatedPublicInputs","type":"tuple","internalType":"struct DataType.PublicInput","components":[{"name":"domain","type":"string","internalType":"string"},{"name":"nullifierHash","type":"bytes32","internalType":"bytes32"},{"name":"emailHash","type":"string","internalType":"string"},{"name":"walletAddress","type":"address","internalType":"address"},{"name":"createdAt","type":"string","internalType":"string"}]}],"outputs":[{"name":"","type":"bool","internalType":"bool"}],"stateMutability":"nonpayable"},{"type":"function","name":"zkJwtProofVerifier","inputs":[],"outputs":[{"name":"","type":"address","internalType":"contract ZkJwtProofVerifier"}],"stateMutability":"view"}],"bytecode":{"object":"0x6080604052348015600e575f5ffd5b50604051611581380380611581833981016040819052602b91604e565b5f80546001600160a01b0319166001600160a01b03929092169190911790556079565b5f60208284031215605d575f5ffd5b81516001600160a01b03811681146072575f5ffd5b9392505050565b6114fb806100865f395ff3fe608060405234801561000f575f5ffd5b50600436106100b1575f3560e01c806369f578d31161006e57806369f578d3146101d557806376b84804146101f757806381e666e9146102215780638507192314610234578063a8c1f46914610254578063f971055214610267575f5ffd5b80630a0732fc146100b55780630e3a0679146100e2578063234b18f3146100f75780632997e86b1461013f5780632db8395d146101715780633fbdc35314610184575b5f5ffd5b6100c86100c3366004610e13565b61027a565b6040516100d9959493929190610e58565b60405180910390f35b6100ea61045c565b6040516100d99190610f1d565b610131610105366004611060565b81516020818401810180516003825292820194820194909420919093529091525f908152604090205481565b6040519081526020016100d9565b61016161014d366004610e13565b60026020525f908152604090205460ff1681565b60405190151581526020016100d9565b61013161017f3660046110aa565b610688565b6101316101923660046110aa565b825160208185018101805160048252928201958201959095209190945282518084018501805192815290850193850193909320925291525f908152604090205481565b6101616101e3366004610e13565b5f9081526002602052604090205460ff1690565b5f54610209906001600160a01b031681565b6040516001600160a01b0390911681526020016100d9565b61013161022f366004611060565b6106e4565b610247610242366004610e13565b610723565b6040516100d9919061111c565b61016161026236600461122f565b6109b2565b6100c8610275366004610e13565b610df9565b60058181548110610289575f80fd5b905f5260205f2090600502015f91509050805f0180546102a8906112f0565b80601f01602080910402602001604051908101604052809291908181526020018280546102d4906112f0565b801561031f5780601f106102f65761010080835404028352916020019161031f565b820191905f5260205f20905b81548152906001019060200180831161030257829003601f168201915b50505050509080600101549080600201805461033a906112f0565b80601f0160208091040260200160405190810160405280929190818152602001828054610366906112f0565b80156103b15780601f10610388576101008083540402835291602001916103b1565b820191905f5260205f20905b81548152906001019060200180831161039457829003601f168201915b505050600384015460048501805494956001600160a01b039092169491935091506103db906112f0565b80601f0160208091040260200160405190810160405280929190818152602001828054610407906112f0565b80156104525780601f1061042957610100808354040283529160200191610452565b820191905f5260205f20905b81548152906001019060200180831161043557829003601f168201915b5050505050905085565b60606005805480602002602001604051908101604052809291908181526020015f905b8282101561067f578382905f5260205f2090600502016040518060a00160405290815f820180546104af906112f0565b80601f01602080910402602001604051908101604052809291908181526020018280546104db906112f0565b80156105265780601f106104fd57610100808354040283529160200191610526565b820191905f5260205f20905b81548152906001019060200180831161050957829003601f168201915b5050505050815260200160018201548152602001600282018054610549906112f0565b80601f0160208091040260200160405190810160405280929190818152602001828054610575906112f0565b80156105c05780601f10610597576101008083540402835291602001916105c0565b820191905f5260205f20905b8154815290600101906020018083116105a357829003601f168201915b505050918352505060038201546001600160a01b031660208201526004820180546040909201916105f0906112f0565b80601f016020809104026020016040519081016040528092919081815260200182805461061c906112f0565b80156106675780601f1061063e57610100808354040283529160200191610667565b820191905f5260205f20905b81548152906001019060200180831161064a57829003601f168201915b5050505050815250508152602001906001019061047f565b50505050905090565b5f6004846040516106999190611328565b9081526020016040518091039020836040516106b59190611328565b908152604080519182900360209081019092206001600160a01b0385165f908152925290205490509392505050565b5f6003836040516106f59190611328565b908152604080519182900360209081019092206001600160a01b0385165f9081529252902054905092915050565b61075c6040518060a00160405280606081526020015f8152602001606081526020015f6001600160a01b03168152602001606081525090565b5f8281526002602052604090205460ff1615156001146107c35760405162461bcd60e51b815260206004820181905260248201527f4120676976656e206e756c6c69666965724861736820697320696e76616c696460448201526064015b60405180910390fd5b5f8281526001602052604090819020815160a081019092528054829082906107ea906112f0565b80601f0160208091040260200160405190810160405280929190818152602001828054610816906112f0565b80156108615780601f1061083857610100808354040283529160200191610861565b820191905f5260205f20905b81548152906001019060200180831161084457829003601f168201915b5050505050815260200160018201548152602001600282018054610884906112f0565b80601f01602080910402602001604051908101604052809291908181526020018280546108b0906112f0565b80156108fb5780601f106108d2576101008083540402835291602001916108fb565b820191905f5260205f20905b8154815290600101906020018083116108de57829003601f168201915b505050918352505060038201546001600160a01b0316602082015260048201805460409092019161092b906112f0565b80601f0160208091040260200160405190810160405280929190818152602001828054610957906112f0565b80156109a25780601f10610979576101008083540402835291602001916109a2565b820191905f5260205f20905b81548152906001019060200180831161098557829003601f168201915b5050505050815250509050919050565b5f8054604051639f652bc960e01b815282916001600160a01b031690639f652bc9906109e8908a908a908a908a9060040161133e565b602060405180830381865afa158015610a03573d5f5f3e3d5ffd5b505050506040513d601f19601f82011682018060405250810190610a2791906113a0565b905080610a805760405162461bcd60e51b815260206004820152602160248201527f4120676976656e205a4b2d4a57542070726f6f66206973206e6f742076616c696044820152601960fa1b60648201526084016107ba565b82606001516001600160a01b0316336001600160a01b031614610b195760405162461bcd60e51b8152602060048201526044602482018190527f412063616c6c65722061646472657373206d757374206265206120676976656e908201527f207365706172617465645075626c6963496e707574732e77616c6c65744164646064820152637265737360e01b608482015260a4016107ba565b610b526040518060a00160405280606081526020015f8152602001606081526020015f6001600160a01b03168152602001606081525090565b83518152602080850151818301819052604080870151818501526060808801516001600160a01b031690850152608080880151908501525f91825260019092522081518291908190610ba4908261140b565b506020820151600182015560408201516002820190610bc3908261140b565b5060608201516003820180546001600160a01b0319166001600160a01b0390921691909117905560808201516004820190610bfe908261140b565b5050506020808201515f9081526002909152604090205460ff1615610ca45760405162461bcd60e51b815260206004820152605060248201527f4120676976656e206e756c6c69666965724861736820697320616c726561647960448201527f20757365642c207768696368206d65616e73206120676976656e2070726f6f6660648201526f081a5cc8185b1c9958591e481d5cd95960821b608482015260a4016107ba565b602080820180515f9081526002909252604091829020805460ff1916600117905551825191519091600391610cd99190611328565b9081526040805160209281900383018120335f908152908452919091209290925582015182519091600491610d0d91611328565b90815260200160405180910390208260400151604051610d2d9190611328565b90815260408051918290036020908101909220335f90815292528120919091556005805460018101825591819052825183929091027f036b6384b5eca791c62761152d0c79bb0604c104a5fb6f4eb0703f3154bb3db001908190610d91908261140b565b506020820151600182015560408201516002820190610db0908261140b565b5060608201516003820180546001600160a01b0319166001600160a01b0390921691909117905560808201516004820190610deb908261140b565b505050505095945050505050565b60016020525f90815260409020805481906102a8906112f0565b5f60208284031215610e23575f5ffd5b5035919050565b5f81518084528060208401602086015e5f602082860101526020601f19601f83011685010191505092915050565b60a081525f610e6a60a0830188610e2a565b8660208401528281036040840152610e828187610e2a565b6001600160a01b038616606085015283810360808501529050610ea58185610e2a565b98975050505050505050565b5f815160a08452610ec560a0850182610e2a565b90506020830151602085015260408301518482036040860152610ee88282610e2a565b91505060018060a01b03606084015116606085015260808301518482036080860152610f148282610e2a565b95945050505050565b5f602082016020835280845180835260408501915060408160051b8601019250602086015f5b82811015610f7457603f19878603018452610f5f858351610eb1565b94506020938401939190910190600101610f43565b50929695505050505050565b634e487b7160e01b5f52604160045260245ffd5b60405160a081016001600160401b0381118282101715610fb657610fb6610f80565b60405290565b5f82601f830112610fcb575f5ffd5b81356001600160401b03811115610fe457610fe4610f80565b604051601f8201601f19908116603f011681016001600160401b038111828210171561101257611012610f80565b604052818152838201602001851015611029575f5ffd5b816020850160208301375f918101602001919091529392505050565b80356001600160a01b038116811461105b575f5ffd5b919050565b5f5f60408385031215611071575f5ffd5b82356001600160401b03811115611086575f5ffd5b61109285828601610fbc565b9250506110a160208401611045565b90509250929050565b5f5f5f606084860312156110bc575f5ffd5b83356001600160401b038111156110d1575f5ffd5b6110dd86828701610fbc565b93505060208401356001600160401b038111156110f8575f5ffd5b61110486828701610fbc565b92505061111360408501611045565b90509250925092565b602081525f61112e6020830184610eb1565b9392505050565b5f5f83601f840112611145575f5ffd5b5081356001600160401b0381111561115b575f5ffd5b6020830191508360208260051b8501011115611175575f5ffd5b9250929050565b5f60a0828403121561118c575f5ffd5b611194610f94565b905081356001600160401b038111156111ab575f5ffd5b6111b784828501610fbc565b8252506020828101359082015260408201356001600160401b038111156111dc575f5ffd5b6111e884828501610fbc565b6040830152506111fa60608301611045565b606082015260808201356001600160401b03811115611217575f5ffd5b61122384828501610fbc565b60808301525092915050565b5f5f5f5f5f60608688031215611243575f5ffd5b85356001600160401b03811115611258575f5ffd5b8601601f81018813611268575f5ffd5b80356001600160401b0381111561127d575f5ffd5b88602082840101111561128e575f5ffd5b6020918201965094508601356001600160401b038111156112ad575f5ffd5b6112b988828901611135565b90945092505060408601356001600160401b038111156112d7575f5ffd5b6112e38882890161117c565b9150509295509295909350565b600181811c9082168061130457607f821691505b60208210810361132257634e487b7160e01b5f52602260045260245ffd5b50919050565b5f82518060208501845e5f920191825250919050565b60408152836040820152838560608301375f60608583018101829052601f19601f8701168301838103820160208501529081018490526001600160fb1b03841115611387575f5ffd5b8360051b80866080840137016080019695505050505050565b5f602082840312156113b0575f5ffd5b8151801515811461112e575f5ffd5b601f82111561140657805f5260205f20601f840160051c810160208510156113e45750805b601f840160051c820191505b81811015611403575f81556001016113f0565b50505b505050565b81516001600160401b0381111561142457611424610f80565b6114388161143284546112f0565b846113bf565b6020601f82116001811461146a575f83156114535750848201515b5f19600385901b1c1916600184901b178455611403565b5f84815260208120601f198516915b828110156114995787850151825560209485019460019092019101611479565b50848210156114b657868401515f19600387901b60f8161c191681555b50505050600190811b0190555056fea26469706673582212209f70fe401a086e7bad7c6411eb9ec5bd37467201575d386b5ef02a921aba5f0564736f6c634300081c0033","linkReferences":{}},"methodIdentifiers":{"getNullifiersByDomainAndEmailHashAndWalletAddress(string,string,address)":"2db8395d","getNullifiersByDomainAndWalletAddress(string,address)":"81e666e9","getPublicInputsOfAllProofs()":"0e3a0679","getPublicInputsOfZkJwtProof(bytes32)":"85071923","isNullifierAlreadyStoredOnChain(bytes32)":"69f578d3","nullifiers(bytes32)":"2997e86b","nullifiersByDomainAndEmailHashAndWalletAddresses(string,string,address)":"3fbdc353","nullifiersByDomainAndWalletAddresses(string,address)":"234b18f3","publicInputsOfAllProofs(uint256)":"0a0732fc","publicInputsOfZkJwtProofs(bytes32)":"f9710552","recordPublicInputsOfZkJwtProof(bytes,bytes32[],(string,bytes32,string,address,string))":"a8c1f469","zkJwtProofVerifier()":"76b84804"},"id":22}