{"abi":[{"type":"constructor","inputs":[{"name":"_mailbox","type":"address","internalType":"address"}],"stateMutability":"nonpayable"},{"type":"receive","stateMutability":"payable"},{"type":"function","name":"BASE_DOMAIN","inputs":[],"outputs":[{"name":"","type":"uint32","internalType":"uint32"}],"stateMutability":"view"},{"type":"function","name":"MAILBOX","inputs":[],"outputs":[{"name":"","type":"address","internalType":"contract IMailboxV3"}],"stateMutability":"view"},{"type":"function","name":"isDelivered","inputs":[{"name":"messageId","type":"bytes32","internalType":"bytes32"}],"outputs":[{"name":"","type":"bool","internalType":"bool"}],"stateMutability":"view"},{"type":"function","name":"localDomain","inputs":[],"outputs":[{"name":"","type":"uint32","internalType":"uint32"}],"stateMutability":"view"},{"type":"function","name":"sendStringToBase","inputs":[{"name":"recipient","type":"address","internalType":"address"},{"name":"message","type":"string","internalType":"string"}],"outputs":[{"name":"messageId","type":"bytes32","internalType":"bytes32"}],"stateMutability":"payable"},{"type":"function","name":"sendToBase","inputs":[{"name":"recipient","type":"address","internalType":"address"},{"name":"message","type":"bytes","internalType":"bytes"}],"outputs":[{"name":"messageId","type":"bytes32","internalType":"bytes32"}],"stateMutability":"payable"},{"type":"event","name":"MessageDispatched","inputs":[{"name":"messageId","type":"bytes32","indexed":true,"internalType":"bytes32"},{"name":"recipient","type":"address","indexed":true,"internalType":"address"},{"name":"message","type":"bytes","indexed":false,"internalType":"bytes"}],"anonymous":false},{"type":"error","name":"EmptyMessage","inputs":[]},{"type":"error","name":"ZeroAddressMailbox","inputs":[]},{"type":"error","name":"ZeroAddressRecipient","inputs":[]}],"bytecode":{"object":"0x60a060405234801561000f575f5ffd5b5060405161072238038061072283398101604081905261002e91610066565b6001600160a01b03811661005557604051638fefd51f60e01b815260040160405180910390fd5b6001600160a01b0316608052610093565b5f60208284031215610076575f5ffd5b81516001600160a01b038116811461008c575f5ffd5b9392505050565b6080516106636100bf5f395f818160d2015281816102380152818161031801526103ed01526106635ff3fe608060405260043610610066575f3560e01c80638d3638f4116100415780638d3638f4146101195780639c53e11c1461012d578063e1526b4614610140575f5ffd5b80636fbdca251461007157806374944ef0146100a05780637dc2b8fb146100c1575f5ffd5b3661006d57005b5f5ffd5b34801561007c575f5ffd5b5061008661210581565b60405163ffffffff90911681526020015b60405180910390f35b6100b36100ae3660046104de565b61016f565b604051908152602001610097565b3480156100cc575f5ffd5b506100f47f000000000000000000000000000000000000000000000000000000000000000081565b60405173ffffffffffffffffffffffffffffffffffffffff9091168152602001610097565b348015610124575f5ffd5b50610086610315565b6100b361013b3660046104de565b6103a8565b34801561014b575f5ffd5b5061015f61015a36600461052d565b6103bc565b6040519015158152602001610097565b5f73ffffffffffffffffffffffffffffffffffffffff84166101bd576040517f464c932800000000000000000000000000000000000000000000000000000000815260040160405180910390fd5b5f8290036101f7576040517fbb1b658000000000000000000000000000000000000000000000000000000000815260040160405180910390fd5b6040517ffa31de0100000000000000000000000000000000000000000000000000000000815273ffffffffffffffffffffffffffffffffffffffff858116917f00000000000000000000000000000000000000000000000000000000000000009091169063fa31de01903490610279906121059086908a908a9060040161058b565b60206040518083038185885af1158015610295573d5f5f3e3d5ffd5b50505050506040513d601f19601f820116820180604052508101906102ba91906105ba565b91508473ffffffffffffffffffffffffffffffffffffffff16827fe2405ed62b5fa54bef2e9a1eb37f0af9353d6ed88aa0430074b7180bc8f7d83386866040516103059291906105d1565b60405180910390a3509392505050565b5f7f000000000000000000000000000000000000000000000000000000000000000073ffffffffffffffffffffffffffffffffffffffff16638d3638f46040518163ffffffff1660e01b8152600401602060405180830381865afa15801561037f573d5f5f3e3d5ffd5b505050506040513d601f19601f820116820180604052508101906103a391906105e4565b905090565b5f6103b484848461016f565b949350505050565b6040517fe495f1d4000000000000000000000000000000000000000000000000000000008152600481018290525f907f000000000000000000000000000000000000000000000000000000000000000073ffffffffffffffffffffffffffffffffffffffff169063e495f1d490602401602060405180830381865afa158015610447573d5f5f3e3d5ffd5b505050506040513d601f19601f8201168201806040525081019061046b919061060e565b92915050565b803573ffffffffffffffffffffffffffffffffffffffff81168114610494575f5ffd5b919050565b5f5f83601f8401126104a9575f5ffd5b50813567ffffffffffffffff8111156104c0575f5ffd5b6020830191508360208285010111156104d7575f5ffd5b9250929050565b5f5f5f604084860312156104f0575f5ffd5b6104f984610471565b9250602084013567ffffffffffffffff811115610514575f5ffd5b61052086828701610499565b9497909650939450505050565b5f6020828403121561053d575f5ffd5b5035919050565b81835281816020850137505f602082840101525f60207fffffffffffffffffffffffffffffffffffffffffffffffffffffffffffffffe0601f840116840101905092915050565b63ffffffff85168152836020820152606060408201525f6105b0606083018486610544565b9695505050505050565b5f602082840312156105ca575f5ffd5b5051919050565b602081525f6103b4602083018486610544565b5f602082840312156105f4575f5ffd5b815163ffffffff81168114610607575f5ffd5b9392505050565b5f6020828403121561061e575f5ffd5b81518015158114610607575f5ffdfea2646970667358221220056750906ec6c61958d9a29588fbcb8329e34c5b104472657de9f974082c69c864736f6c634300081c0033","linkReferences":{}},"methodIdentifiers":{"BASE_DOMAIN()":"6fbdca25","MAILBOX()":"7dc2b8fb","isDelivered(bytes32)":"e1526b46","localDomain()":"8d3638f4","sendStringToBase(address,string)":"9c53e11c","sendToBase(address,bytes)":"74944ef0"},"id":42}