{"abi":[{"type":"constructor","inputs":[{"name":"_proofOfHuman","type":"address","internalType":"contract ProofOfHuman"}],"stateMutability":"nonpayable"},{"type":"function","name":"getLastVerifiedUser","inputs":[],"outputs":[{"name":"","type":"address","internalType":"address"}],"stateMutability":"view"},{"type":"function","name":"getProofOfHumanRecord","inputs":[{"name":"user","type":"address","internalType":"address"}],"outputs":[{"name":"","type":"tuple","internalType":"struct DataType.ProofOfHumanRecord","components":[{"name":"verificationConfigId","type":"bytes32","internalType":"bytes32"},{"name":"chainId","type":"uint256","internalType":"uint256"},{"name":"userAddress","type":"address","internalType":"address"},{"name":"isAboveMinimumAge","type":"bool","internalType":"bool"},{"name":"isValidNationality","type":"bool","internalType":"bool"},{"name":"nullifier","type":"uint256","internalType":"uint256"},{"name":"createdAt","type":"uint256","internalType":"uint256"}]}],"stateMutability":"view"},{"type":"function","name":"proofOfHuman","inputs":[],"outputs":[{"name":"","type":"address","internalType":"contract ProofOfHuman"}],"stateMutability":"view"},{"type":"function","name":"proofOfHumanRecords","inputs":[{"name":"","type":"address","internalType":"address"}],"outputs":[{"name":"verificationConfigId","type":"bytes32","internalType":"bytes32"},{"name":"chainId","type":"uint256","internalType":"uint256"},{"name":"userAddress","type":"address","internalType":"address"},{"name":"isAboveMinimumAge","type":"bool","internalType":"bool"},{"name":"isValidNationality","type":"bool","internalType":"bool"},{"name":"nullifier","type":"uint256","internalType":"uint256"},{"name":"createdAt","type":"uint256","internalType":"uint256"}],"stateMutability":"view"},{"type":"function","name":"storeVerificationData","inputs":[{"name":"isAboveMinimumAge","type":"bool","internalType":"bool"},{"name":"isValidNationality","type":"bool","internalType":"bool"},{"name":"proofPayload","type":"bytes","internalType":"bytes"},{"name":"userContextData","type":"bytes","internalType":"bytes"},{"name":"","type":"bool","internalType":"bool"}],"outputs":[{"name":"","type":"bool","internalType":"bool"}],"stateMutability":"nonpayable"}],"bytecode":{"object":"0x6080604052348015600f57600080fd5b50604051610d4b380380610d4b833981016040819052602c916050565b600080546001600160a01b0319166001600160a01b0392909216919091179055607e565b600060208284031215606157600080fd5b81516001600160a01b0381168114607757600080fd5b9392505050565b610cbe8061008d6000396000f3fe608060405234801561001057600080fd5b50600436106100675760003560e01c8063a1d028f311610050578063a1d028f3146100c1578063b7f44f9f14610226578063ee0ac41b1461030357600080fd5b80630b8739391461006c5780630f1bf7d314610094575b600080fd5b61007f61007a366004610896565b610323565b60405190151581526020015b60405180910390f35b61009c61067e565b60405173ffffffffffffffffffffffffffffffffffffffff909116815260200161008b565b6101b66100cf366004610966565b6040805160e081018252600080825260208201819052918101829052606081018290526080810182905260a0810182905260c08101919091525073ffffffffffffffffffffffffffffffffffffffff908116600090815260016020818152604092839020835160e08101855281548152928101549183019190915260028101549384169282019290925260ff740100000000000000000000000000000000000000008404811615156060830152750100000000000000000000000000000000000000000090930490921615156080830152600381015460a08301526004015460c082015290565b60405161008b9190600060e082019050825182526020830151602083015273ffffffffffffffffffffffffffffffffffffffff604084015116604083015260608301511515606083015260808301511515608083015260a083015160a083015260c083015160c083015292915050565b6102b1610234366004610966565b600160208190526000918252604090912080549181015460028201546003830154600490930154919273ffffffffffffffffffffffffffffffffffffffff82169260ff7401000000000000000000000000000000000000000084048116937501000000000000000000000000000000000000000000900416919087565b60408051978852602088019690965273ffffffffffffffffffffffffffffffffffffffff9094169486019490945290151560608501521515608084015260a083019190915260c082015260e00161008b565b60005461009c9073ffffffffffffffffffffffffffffffffffffffff1681565b60003380610392576040517f08c379a000000000000000000000000000000000000000000000000000000000815260206004820152601460248201527f496e76616c69642075736572206164647265737300000000000000000000000060448201526064015b60405180910390fd5b61039e87878787610715565b5060008060009054906101000a900473ffffffffffffffffffffffffffffffffffffffff1673ffffffffffffffffffffffffffffffffffffffff1663bb4437446040518163ffffffff1660e01b8152600401602060405180830381865afa15801561040d573d6000803e3d6000fd5b505050506040513d601f19601f82011682018060405250810190610431919061098a565b905060008060009054906101000a900473ffffffffffffffffffffffffffffffffffffffff1673ffffffffffffffffffffffffffffffffffffffff166397228a7e6040518163ffffffff1660e01b8152600401600060405180830381865afa1580156104a1573d6000803e3d6000fd5b505050506040513d6000823e601f3d9081017fffffffffffffffffffffffffffffffffffffffffffffffffffffffffffffffe01682016040526104e79190810190610ab4565b50505050505050925050508060000361055c576040517f08c379a000000000000000000000000000000000000000000000000000000000815260206004820152601160248201527f496e76616c6964206e756c6c69666965720000000000000000000000000000006044820152606401610389565b6040805160e08101825292835246602080850191825273ffffffffffffffffffffffffffffffffffffffff9586168584018181528f1515606088019081528f15156080890190815260a089019788524260c08a0190815260009485526001958690529690932097518855935187840155516002870180549451925115157501000000000000000000000000000000000000000000027fffffffffffffffffffff00ffffffffffffffffffffffffffffffffffffffffff93151574010000000000000000000000000000000000000000027fffffffffffffffffffffff0000000000000000000000000000000000000000009096169290991691909117939093171695909517905590516003830155516004909101559050979650505050505050565b60008060009054906101000a900473ffffffffffffffffffffffffffffffffffffffff1673ffffffffffffffffffffffffffffffffffffffff16635417c7556040518163ffffffff1660e01b8152600401602060405180830381865afa1580156106ec573d6000803e3d6000fd5b505050506040513d601f19601f820116820180604052508101906107109190610bfc565b905090565b600080546040517fd161802b00000000000000000000000000000000000000000000000000000000815273ffffffffffffffffffffffffffffffffffffffff9091169063d161802b90610772908890889088908890600401610c62565b600060405180830381600087803b15801561078c57600080fd5b505af11580156107a0573d6000803e3d6000fd5b5050505060008054906101000a900473ffffffffffffffffffffffffffffffffffffffff1673ffffffffffffffffffffffffffffffffffffffff16637793a8436040518163ffffffff1660e01b8152600401602060405180830381865afa15801561080f573d6000803e3d6000fd5b505050506040513d601f19601f820116820180604052508101906108339190610c94565b95945050505050565b801515811461084a57600080fd5b50565b60008083601f84011261085f57600080fd5b50813567ffffffffffffffff81111561087757600080fd5b60208301915083602082850101111561088f57600080fd5b9250929050565b600080600080600080600060a0888a0312156108b157600080fd5b87356108bc8161083c565b965060208801356108cc8161083c565b9550604088013567ffffffffffffffff8111156108e857600080fd5b6108f48a828b0161084d565b909650945050606088013567ffffffffffffffff81111561091457600080fd5b6109208a828b0161084d565b90945092505060808801356109348161083c565b8091505092959891949750929550565b73ffffffffffffffffffffffffffffffffffffffff8116811461084a57600080fd5b60006020828403121561097857600080fd5b813561098381610944565b9392505050565b60006020828403121561099c57600080fd5b5051919050565b7f4e487b7100000000000000000000000000000000000000000000000000000000600052604160045260246000fd5b600082601f8301126109e357600080fd5b815167ffffffffffffffff8111156109fd576109fd6109a3565b6040517fffffffffffffffffffffffffffffffffffffffffffffffffffffffffffffffe0603f7fffffffffffffffffffffffffffffffffffffffffffffffffffffffffffffffe0601f8501160116810181811067ffffffffffffffff82111715610a6957610a696109a3565b604052818152838201602001851015610a8157600080fd5b60005b82811015610aa057602081860181015183830182015201610a84565b506000918101602001919091529392505050565b6000806000806000806000806000806101408b8d031215610ad457600080fd5b8a5160208c015160408d015160608e0151929c50909a50985067ffffffffffffffff811115610b0257600080fd5b610b0e8d828e016109d2565b97505060808b015167ffffffffffffffff811115610b2b57600080fd5b610b378d828e016109d2565b96505060a08b015167ffffffffffffffff811115610b5457600080fd5b610b608d828e016109d2565b95505060c08b015167ffffffffffffffff811115610b7d57600080fd5b610b898d828e016109d2565b94505060e08b015167ffffffffffffffff811115610ba657600080fd5b610bb28d828e016109d2565b9350506101008b015167ffffffffffffffff811115610bd057600080fd5b610bdc8d828e016109d2565b92505060006101208c01519050809150509295989b9194979a5092959850565b600060208284031215610c0e57600080fd5b815161098381610944565b8183528181602085013750600060208284010152600060207fffffffffffffffffffffffffffffffffffffffffffffffffffffffffffffffe0601f840116840101905092915050565b604081526000610c76604083018688610c19565b8281036020840152610c89818587610c19565b979650505050505050565b600060208284031215610ca657600080fd5b81516109838161083c56fea164736f6c634300081c000a","linkReferences":{}},"methodIdentifiers":{"getLastVerifiedUser()":"0f1bf7d3","getProofOfHumanRecord(address)":"a1d028f3","proofOfHuman()":"ee0ac41b","proofOfHumanRecords(address)":"b7f44f9f","storeVerificationData(bool,bool,bytes,bytes,bool)":"0b873939"},"id":27}