{"abi":[{"type":"constructor","inputs":[{"name":"_proofOfHuman","type":"address","internalType":"contract ProofOfHuman"}],"stateMutability":"nonpayable"},{"type":"function","name":"getLastVerifiedUser","inputs":[],"outputs":[{"name":"","type":"address","internalType":"address"}],"stateMutability":"view"},{"type":"function","name":"getProofOfHumanRecord","inputs":[{"name":"user","type":"address","internalType":"address"}],"outputs":[{"name":"","type":"tuple","internalType":"struct DataType.ProofOfHumanRecord","components":[{"name":"verificationConfigId","type":"bytes32","internalType":"bytes32"},{"name":"chainId","type":"uint256","internalType":"uint256"},{"name":"userAddress","type":"address","internalType":"address"},{"name":"isAboveMinimumAge","type":"bool","internalType":"bool"},{"name":"isValidNationality","type":"bool","internalType":"bool"},{"name":"nullifier","type":"uint256","internalType":"uint256"},{"name":"createdAt","type":"uint256","internalType":"uint256"}]}],"stateMutability":"view"},{"type":"function","name":"proofOfHuman","inputs":[],"outputs":[{"name":"","type":"address","internalType":"contract ProofOfHuman"}],"stateMutability":"view"},{"type":"function","name":"proofOfHumanRecords","inputs":[{"name":"","type":"address","internalType":"address"}],"outputs":[{"name":"verificationConfigId","type":"bytes32","internalType":"bytes32"},{"name":"chainId","type":"uint256","internalType":"uint256"},{"name":"userAddress","type":"address","internalType":"address"},{"name":"isAboveMinimumAge","type":"bool","internalType":"bool"},{"name":"isValidNationality","type":"bool","internalType":"bool"},{"name":"nullifier","type":"uint256","internalType":"uint256"},{"name":"createdAt","type":"uint256","internalType":"uint256"}],"stateMutability":"view"},{"type":"function","name":"storeVerificationData","inputs":[{"name":"isAboveMinimumAge","type":"bool","internalType":"bool"},{"name":"isValidNationality","type":"bool","internalType":"bool"}],"outputs":[{"name":"","type":"bool","internalType":"bool"}],"stateMutability":"nonpayable"}],"bytecode":{"object":"0x6080604052348015600f57600080fd5b50604051610abd380380610abd833981016040819052602c916050565b600080546001600160a01b0319166001600160a01b0392909216919091179055607e565b600060208284031215606157600080fd5b81516001600160a01b0381168114607757600080fd5b9392505050565b610a308061008d6000396000f3fe608060405234801561001057600080fd5b50600436106100675760003560e01c8063a1d028f311610050578063a1d028f3146100c1578063b7f44f9f14610226578063ee0ac41b1461030357600080fd5b80630f1bf7d31461006c57806387d6b9a91461009e575b600080fd5b610074610323565b60405173ffffffffffffffffffffffffffffffffffffffff90911681526020015b60405180910390f35b6100b16100ac366004610718565b6103ba565b6040519015158152602001610095565b6101b66100cf366004610770565b6040805160e081018252600080825260208201819052918101829052606081018290526080810182905260a0810182905260c08101919091525073ffffffffffffffffffffffffffffffffffffffff908116600090815260016020818152604092839020835160e08101855281548152928101549183019190915260028101549384169282019290925260ff740100000000000000000000000000000000000000008404811615156060830152750100000000000000000000000000000000000000000090930490921615156080830152600381015460a08301526004015460c082015290565b6040516100959190600060e082019050825182526020830151602083015273ffffffffffffffffffffffffffffffffffffffff604084015116604083015260608301511515606083015260808301511515608083015260a083015160a083015260c083015160c083015292915050565b6102b1610234366004610770565b600160208190526000918252604090912080549181015460028201546003830154600490930154919273ffffffffffffffffffffffffffffffffffffffff82169260ff7401000000000000000000000000000000000000000084048116937501000000000000000000000000000000000000000000900416919087565b60408051978852602088019690965273ffffffffffffffffffffffffffffffffffffffff9094169486019490945290151560608501521515608084015260a083019190915260c082015260e001610095565b6000546100749073ffffffffffffffffffffffffffffffffffffffff1681565b60008060009054906101000a900473ffffffffffffffffffffffffffffffffffffffff1673ffffffffffffffffffffffffffffffffffffffff16635417c7556040518163ffffffff1660e01b8152600401602060405180830381865afa158015610391573d6000803e3d6000fd5b505050506040513d601f19601f820116820180604052508101906103b59190610794565b905090565b60003380610429576040517f08c379a000000000000000000000000000000000000000000000000000000000815260206004820152601460248201527f496e76616c69642075736572206164647265737300000000000000000000000060448201526064015b60405180910390fd5b60008060009054906101000a900473ffffffffffffffffffffffffffffffffffffffff1673ffffffffffffffffffffffffffffffffffffffff1663bb4437446040518163ffffffff1660e01b8152600401602060405180830381865afa158015610497573d6000803e3d6000fd5b505050506040513d601f19601f820116820180604052508101906104bb91906107b1565b905060008060009054906101000a900473ffffffffffffffffffffffffffffffffffffffff1673ffffffffffffffffffffffffffffffffffffffff166397228a7e6040518163ffffffff1660e01b8152600401600060405180830381865afa15801561052b573d6000803e3d6000fd5b505050506040513d6000823e601f3d9081017fffffffffffffffffffffffffffffffffffffffffffffffffffffffffffffffe016820160405261057191908101906108db565b5050505050505092505050806000036105e6576040517f08c379a000000000000000000000000000000000000000000000000000000000815260206004820152601160248201527f496e76616c6964206e756c6c69666965720000000000000000000000000000006044820152606401610420565b6040805160e08101825292835246602080850191825273ffffffffffffffffffffffffffffffffffffffff9586168584018181528a1515606088019081528a15156080890190815260a089019788524260c08a0190815260009485526001958690529690932097518855935187840155516002870180549451925115157501000000000000000000000000000000000000000000027fffffffffffffffffffff00ffffffffffffffffffffffffffffffffffffffffff93151574010000000000000000000000000000000000000000027fffffffffffffffffffffff000000000000000000000000000000000000000000909616929099169190911793909317169590951790559051600383015551600490910155905092915050565b8035801515811461071357600080fd5b919050565b6000806040838503121561072b57600080fd5b61073483610703565b915061074260208401610703565b90509250929050565b73ffffffffffffffffffffffffffffffffffffffff8116811461076d57600080fd5b50565b60006020828403121561078257600080fd5b813561078d8161074b565b9392505050565b6000602082840312156107a657600080fd5b815161078d8161074b565b6000602082840312156107c357600080fd5b5051919050565b7f4e487b7100000000000000000000000000000000000000000000000000000000600052604160045260246000fd5b600082601f83011261080a57600080fd5b815167ffffffffffffffff811115610824576108246107ca565b6040517fffffffffffffffffffffffffffffffffffffffffffffffffffffffffffffffe0603f7fffffffffffffffffffffffffffffffffffffffffffffffffffffffffffffffe0601f8501160116810181811067ffffffffffffffff82111715610890576108906107ca565b6040528181528382016020018510156108a857600080fd5b60005b828110156108c7576020818601810151838301820152016108ab565b506000918101602001919091529392505050565b6000806000806000806000806000806101408b8d0312156108fb57600080fd5b8a5160208c015160408d015160608e0151929c50909a50985067ffffffffffffffff81111561092957600080fd5b6109358d828e016107f9565b97505060808b015167ffffffffffffffff81111561095257600080fd5b61095e8d828e016107f9565b96505060a08b015167ffffffffffffffff81111561097b57600080fd5b6109878d828e016107f9565b95505060c08b015167ffffffffffffffff8111156109a457600080fd5b6109b08d828e016107f9565b94505060e08b015167ffffffffffffffff8111156109cd57600080fd5b6109d98d828e016107f9565b9350506101008b015167ffffffffffffffff8111156109f757600080fd5b610a038d828e016107f9565b92505060006101208c01519050809150509295989b9194979a509295985056fea164736f6c634300081c000a","linkReferences":{}},"methodIdentifiers":{"getLastVerifiedUser()":"0f1bf7d3","getProofOfHumanRecord(address)":"a1d028f3","proofOfHuman()":"ee0ac41b","proofOfHumanRecords(address)":"b7f44f9f","storeVerificationData(bool,bool)":"87d6b9a9"},"id":27}