{"abi":[{"type":"constructor","inputs":[{"name":"_mailbox","type":"address","internalType":"address"},{"name":"_initialOwner","type":"address","internalType":"address"}],"stateMutability":"nonpayable"},{"type":"function","name":"CELO_DOMAIN","inputs":[],"outputs":[{"name":"","type":"uint32","internalType":"uint32"}],"stateMutability":"view"},{"type":"function","name":"MAILBOX","inputs":[],"outputs":[{"name":"","type":"address","internalType":"contract IMailbox"}],"stateMutability":"view"},{"type":"function","name":"addTrustedSender","inputs":[{"name":"sender","type":"address","internalType":"address"}],"outputs":[],"stateMutability":"nonpayable"},{"type":"function","name":"addTrustedSenderBytes32","inputs":[{"name":"senderBytes32","type":"bytes32","internalType":"bytes32"}],"outputs":[],"stateMutability":"nonpayable"},{"type":"function","name":"enforceTrustedSenders","inputs":[],"outputs":[{"name":"","type":"bool","internalType":"bool"}],"stateMutability":"view"},{"type":"function","name":"getMessage","inputs":[{"name":"messageId","type":"bytes32","internalType":"bytes32"}],"outputs":[{"name":"","type":"tuple","internalType":"struct BaseReceiver.ReceivedMessage","components":[{"name":"origin","type":"uint32","internalType":"uint32"},{"name":"sender","type":"bytes32","internalType":"bytes32"},{"name":"message","type":"bytes","internalType":"bytes"},{"name":"timestamp","type":"uint256","internalType":"uint256"},{"name":"exists","type":"bool","internalType":"bool"}]}],"stateMutability":"view"},{"type":"function","name":"getMessageAsString","inputs":[{"name":"messageId","type":"bytes32","internalType":"bytes32"}],"outputs":[{"name":"","type":"string","internalType":"string"}],"stateMutability":"view"},{"type":"function","name":"getSenderAddress","inputs":[{"name":"messageId","type":"bytes32","internalType":"bytes32"}],"outputs":[{"name":"","type":"address","internalType":"address"}],"stateMutability":"view"},{"type":"function","name":"handle","inputs":[{"name":"_origin","type":"uint32","internalType":"uint32"},{"name":"_sender","type":"bytes32","internalType":"bytes32"},{"name":"_message","type":"bytes","internalType":"bytes"}],"outputs":[],"stateMutability":"payable"},{"type":"function","name":"isTrustedSender","inputs":[{"name":"sender","type":"address","internalType":"address"}],"outputs":[{"name":"","type":"bool","internalType":"bool"}],"stateMutability":"view"},{"type":"function","name":"isTrustedSenderBytes32","inputs":[{"name":"senderBytes32","type":"bytes32","internalType":"bytes32"}],"outputs":[{"name":"","type":"bool","internalType":"bool"}],"stateMutability":"view"},{"type":"function","name":"localDomain","inputs":[],"outputs":[{"name":"","type":"uint32","internalType":"uint32"}],"stateMutability":"view"},{"type":"function","name":"messageCount","inputs":[],"outputs":[{"name":"","type":"uint256","internalType":"uint256"}],"stateMutability":"view"},{"type":"function","name":"owner","inputs":[],"outputs":[{"name":"","type":"address","internalType":"address"}],"stateMutability":"view"},{"type":"function","name":"receivedMessages","inputs":[{"name":"","type":"bytes32","internalType":"bytes32"}],"outputs":[{"name":"origin","type":"uint32","internalType":"uint32"},{"name":"sender","type":"bytes32","internalType":"bytes32"},{"name":"message","type":"bytes","internalType":"bytes"},{"name":"timestamp","type":"uint256","internalType":"uint256"},{"name":"exists","type":"bool","internalType":"bool"}],"stateMutability":"view"},{"type":"function","name":"removeTrustedSender","inputs":[{"name":"sender","type":"address","internalType":"address"}],"outputs":[],"stateMutability":"nonpayable"},{"type":"function","name":"removeTrustedSenderBytes32","inputs":[{"name":"senderBytes32","type":"bytes32","internalType":"bytes32"}],"outputs":[],"stateMutability":"nonpayable"},{"type":"function","name":"renounceOwnership","inputs":[],"outputs":[],"stateMutability":"nonpayable"},{"type":"function","name":"setTrustedSenderEnforcement","inputs":[{"name":"enabled","type":"bool","internalType":"bool"}],"outputs":[],"stateMutability":"nonpayable"},{"type":"function","name":"transferOwnership","inputs":[{"name":"newOwner","type":"address","internalType":"address"}],"outputs":[],"stateMutability":"nonpayable"},{"type":"function","name":"trustedSenders","inputs":[{"name":"","type":"bytes32","internalType":"bytes32"}],"outputs":[{"name":"","type":"bool","internalType":"bool"}],"stateMutability":"view"},{"type":"event","name":"MessageReceived","inputs":[{"name":"messageId","type":"bytes32","indexed":true,"internalType":"bytes32"},{"name":"origin","type":"uint32","indexed":true,"internalType":"uint32"},{"name":"sender","type":"bytes32","indexed":true,"internalType":"bytes32"},{"name":"message","type":"bytes","indexed":false,"internalType":"bytes"}],"anonymous":false},{"type":"event","name":"OwnershipTransferred","inputs":[{"name":"previousOwner","type":"address","indexed":true,"internalType":"address"},{"name":"newOwner","type":"address","indexed":true,"internalType":"address"}],"anonymous":false},{"type":"event","name":"TrustedSenderAdded","inputs":[{"name":"sender","type":"bytes32","indexed":true,"internalType":"bytes32"}],"anonymous":false},{"type":"event","name":"TrustedSenderEnforcementToggled","inputs":[{"name":"enabled","type":"bool","indexed":false,"internalType":"bool"}],"anonymous":false},{"type":"event","name":"TrustedSenderRemoved","inputs":[{"name":"sender","type":"bytes32","indexed":true,"internalType":"bytes32"}],"anonymous":false},{"type":"error","name":"InvalidOrigin","inputs":[{"name":"received","type":"uint32","internalType":"uint32"},{"name":"expected","type":"uint32","internalType":"uint32"}]},{"type":"error","name":"MessageAlreadyProcessed","inputs":[]},{"type":"error","name":"NotMailbox","inputs":[]},{"type":"error","name":"OwnableInvalidOwner","inputs":[{"name":"owner","type":"address","internalType":"address"}]},{"type":"error","name":"OwnableUnauthorizedAccount","inputs":[{"name":"account","type":"address","internalType":"address"}]},{"type":"error","name":"UntrustedSender","inputs":[{"name":"sender","type":"bytes32","internalType":"bytes32"}]},{"type":"error","name":"ZeroAddressMailbox","inputs":[]}],"bytecode":{"object":"0x60a060405234801561000f575f5ffd5b506040516115d73803806115d783398101604081905261002e91610113565b806001600160a01b03811661005c57604051631e4fbdf760e01b81525f600482015260240160405180910390fd5b610065816100a9565b506001600160a01b03821661008d57604051638fefd51f60e01b815260040160405180910390fd5b506001600160a01b03166080526004805460ff19169055610144565b5f80546001600160a01b038381166001600160a01b0319831681178455604051919092169283917f8be0079c531659141344cd1fd0a4f28419497f9722a3daafe3b4186f6b6457e09190a35050565b80516001600160a01b038116811461010e575f5ffd5b919050565b5f5f60408385031215610124575f5ffd5b61012d836100f8565b915061013b602084016100f8565b90509250929050565b60805161146d61016a5f395f81816103090152818161073e0152610b34015261146d5ff3fe608060405260043610610162575f3560e01c806384b6e3ea116100c6578063aa6e26531161007c578063ee2117be11610057578063ee2117be14610436578063f2fde38b14610455578063f69f815114610474575f5ffd5b8063aa6e2653146103d0578063accb4e18146103fe578063df3f7ec914610417575f5ffd5b80638da5cb5b116100ac5780638da5cb5b14610373578063a42b14e31461039c578063aa1bd0a4146103bb575f5ffd5b806384b6e3ea1461032b5780638d3638f41461034a575f5ffd5b806352ab6ae51161011b57806363453bba1161010157806363453bba146102a0578063715018a6146102e45780637dc2b8fb146102f8575f5ffd5b806352ab6ae51461025f57806356d5d4751461028d575f5ffd5b80632552c2481161014b5780632552c248146101ef5780633dbcc8d11461021057806340adcfc714610233575f5ffd5b80630139a2211461016657806322415f601461019b575b5f5ffd5b348015610171575f5ffd5b50610185610180366004610f4f565b6104a4565b6040516101929190610fb2565b60405180910390f35b3480156101a6575f5ffd5b506101df6101b5366004611009565b73ffffffffffffffffffffffffffffffffffffffff165f9081526003602052604090205460ff1690565b6040519015158152602001610192565b3480156101fa575f5ffd5b5061020e610209366004610f4f565b6105bf565b005b34801561021b575f5ffd5b5061022560025481565b604051908152602001610192565b34801561023e575f5ffd5b5061025261024d366004610f4f565b610606565b6040516101929190611043565b34801561026a575f5ffd5b506101df610279366004610f4f565b60036020525f908152604090205460ff1681565b61020e61029b366004611066565b610726565b3480156102ab575f5ffd5b506102bf6102ba366004610f4f565b610a21565b60405173ffffffffffffffffffffffffffffffffffffffff9091168152602001610192565b3480156102ef575f5ffd5b5061020e610abc565b348015610303575f5ffd5b506102bf7f000000000000000000000000000000000000000000000000000000000000000081565b348015610336575f5ffd5b5061020e610345366004611009565b610acf565b348015610355575f5ffd5b5061035e610b31565b60405163ffffffff9091168152602001610192565b34801561037e575f5ffd5b505f5473ffffffffffffffffffffffffffffffffffffffff166102bf565b3480156103a7575f5ffd5b5061020e6103b6366004611009565b610bc4565b3480156103c6575f5ffd5b5061035e61a4ec81565b3480156103db575f5ffd5b506101df6103ea366004610f4f565b5f9081526003602052604090205460ff1690565b348015610409575f5ffd5b506004546101df9060ff1681565b348015610422575f5ffd5b5061020e610431366004610f4f565b610c23565b348015610441575f5ffd5b5061020e6104503660046110eb565b610c6d565b348015610460575f5ffd5b5061020e61046f366004611009565b610cbc565b34801561047f575f5ffd5b5061049361048e366004610f4f565b610d1f565b60405161019295949392919061110a565b6104da6040518060a001604052805f63ffffffff1681526020015f8152602001606081526020015f81526020015f151581525090565b5f82815260016020818152604092839020835160a081018552815463ffffffff1681529281015491830191909152600281018054929391929184019161051f90611147565b80601f016020809104026020016040519081016040528092919081815260200182805461054b90611147565b80156105965780601f1061056d57610100808354040283529160200191610596565b820191905f5260205f20905b81548152906001019060200180831161057957829003601f168201915b50505091835250506003820154602082015260049091015460ff16151560409091015292915050565b6105c7610de1565b5f81815260036020526040808220805460ff191690555182917f9c549f3e95546b3bd5b3703f268a274e2629cc2f236ade562f5c72be3d361c4c91a250565b5f8181526001602052604090206004015460609060ff16610688576040517f08c379a000000000000000000000000000000000000000000000000000000000815260206004820152601660248201527f4d65737361676520646f6573206e6f742065786973740000000000000000000060448201526064015b60405180910390fd5b5f82815260016020526040902060020180546106a390611147565b80601f01602080910402602001604051908101604052809291908181526020018280546106cf90611147565b801561071a5780601f106106f15761010080835404028352916020019161071a565b820191905f5260205f20905b8154815290600101906020018083116106fd57829003601f168201915b50505050509050919050565b3373ffffffffffffffffffffffffffffffffffffffff7f00000000000000000000000000000000000000000000000000000000000000001614610795576040517f3ceee36800000000000000000000000000000000000000000000000000000000815260040160405180910390fd5b63ffffffff841661a4ec146107e6576040517febb5bdfe00000000000000000000000000000000000000000000000000000000815263ffffffff8516600482015261a4ec602482015260440161067f565b60045460ff16801561080657505f8381526003602052604090205460ff16155b15610840576040517fc21fa2e50000000000000000000000000000000000000000000000000000000081526004810184905260240161067f565b5f8484600254858560405160200161085c959493929190611198565b604080517fffffffffffffffffffffffffffffffffffffffffffffffffffffffffffffffe081840301815291815281516020928301205f818152600190935291206004015490915060ff16156108de576040517f7b04260900000000000000000000000000000000000000000000000000000000815260040160405180910390fd5b6040518060a001604052808663ffffffff16815260200185815260200184848080601f0160208091040260200160405190810160405280939291908181526020018383808284375f9201829052509385525050426020808501919091526001604094850181905286845280825292849020855181547fffffffffffffffffffffffffffffffffffffffffffffffffffffffff000000001663ffffffff90911617815590850151928101929092555090820151600282019061099f908261125d565b50606082015160038201556080909101516004909101805460ff191691151591909117905560028054905f6109d383611374565b9190505550838563ffffffff16827f209e391a9558e7780ebbd5a1427ea5d41abd2922e453454201b738d69339d8938686604051610a129291906113d0565b60405180910390a45050505050565b5f8181526001602052604081206004015460ff16610a9b576040517f08c379a000000000000000000000000000000000000000000000000000000000815260206004820152601660248201527f4d65737361676520646f6573206e6f7420657869737400000000000000000000604482015260640161067f565b5f8281526001602081905260409091200154610ab690610e33565b92915050565b610ac4610de1565b610acd5f610edb565b565b610ad7610de1565b73ffffffffffffffffffffffffffffffffffffffff81165f81815260036020526040808220805460ff191660011790555182917f5a4b7a609e4bd9ccf1afdab287edb8216022bbd7749d0840a8ef38106ceb4b6e91a25050565b5f7f000000000000000000000000000000000000000000000000000000000000000073ffffffffffffffffffffffffffffffffffffffff16638d3638f46040518163ffffffff1660e01b8152600401602060405180830381865afa158015610b9b573d5f5f3e3d5ffd5b505050506040513d601f19601f82011682018060405250810190610bbf919061141c565b905090565b610bcc610de1565b73ffffffffffffffffffffffffffffffffffffffff81165f81815260036020526040808220805460ff191690555182917f9c549f3e95546b3bd5b3703f268a274e2629cc2f236ade562f5c72be3d361c4c91a25050565b610c2b610de1565b5f81815260036020526040808220805460ff191660011790555182917f5a4b7a609e4bd9ccf1afdab287edb8216022bbd7749d0840a8ef38106ceb4b6e91a250565b610c75610de1565b6004805460ff19168215159081179091556040519081527f866c740197022d3096822cf045a9da0fbd590a370382481f665114b00c65af9e9060200160405180910390a150565b610cc4610de1565b73ffffffffffffffffffffffffffffffffffffffff8116610d13576040517f1e4fbdf70000000000000000000000000000000000000000000000000000000081525f600482015260240161067f565b610d1c81610edb565b50565b600160208190525f918252604090912080549181015460028201805463ffffffff90941693919291610d5090611147565b80601f0160208091040260200160405190810160405280929190818152602001828054610d7c90611147565b8015610dc75780601f10610d9e57610100808354040283529160200191610dc7565b820191905f5260205f20905b815481529060010190602001808311610daa57829003601f168201915b50505050600383015460049093015491929160ff16905085565b5f5473ffffffffffffffffffffffffffffffffffffffff163314610acd576040517f118cdaa700000000000000000000000000000000000000000000000000000000815233600482015260240161067f565b5f73ffffffffffffffffffffffffffffffffffffffff821115610ed7576040517f08c379a0000000000000000000000000000000000000000000000000000000008152602060048201526024808201527f5479706543617374733a2062797465733332546f41646472657373206f76657260448201527f666c6f7700000000000000000000000000000000000000000000000000000000606482015260840161067f565b5090565b5f805473ffffffffffffffffffffffffffffffffffffffff8381167fffffffffffffffffffffffff0000000000000000000000000000000000000000831681178455604051919092169283917f8be0079c531659141344cd1fd0a4f28419497f9722a3daafe3b4186f6b6457e09190a35050565b5f60208284031215610f5f575f5ffd5b5035919050565b5f81518084528060208401602086015e5f6020828601015260207fffffffffffffffffffffffffffffffffffffffffffffffffffffffffffffffe0601f83011685010191505092915050565b6020815263ffffffff8251166020820152602082015160408201525f604083015160a06060840152610fe760c0840182610f66565b9050606084015160808401526080840151151560a08401528091505092915050565b5f60208284031215611019575f5ffd5b813573ffffffffffffffffffffffffffffffffffffffff8116811461103c575f5ffd5b9392505050565b602081525f61103c6020830184610f66565b63ffffffff81168114610d1c575f5ffd5b5f5f5f5f60608587031215611079575f5ffd5b843561108481611055565b935060208501359250604085013567ffffffffffffffff8111156110a6575f5ffd5b8501601f810187136110b6575f5ffd5b803567ffffffffffffffff8111156110cc575f5ffd5b8760208284010111156110dd575f5ffd5b949793965060200194505050565b5f602082840312156110fb575f5ffd5b8135801515811461103c575f5ffd5b63ffffffff8616815284602082015260a060408201525f61112e60a0830186610f66565b6060830194909452509015156080909101529392505050565b600181811c9082168061115b57607f821691505b602082108103611192577f4e487b71000000000000000000000000000000000000000000000000000000005f52602260045260245ffd5b50919050565b7fffffffff000000000000000000000000000000000000000000000000000000008660e01b168152846004820152836024820152818360448301375f9101604401908152949350505050565b7f4e487b71000000000000000000000000000000000000000000000000000000005f52604160045260245ffd5b601f82111561125857805f5260205f20601f840160051c810160208510156112365750805b601f840160051c820191505b81811015611255575f8155600101611242565b50505b505050565b815167ffffffffffffffff811115611277576112776111e4565b61128b816112858454611147565b84611211565b6020601f8211600181146112dc575f83156112a65750848201515b7fffffffffffffffffffffffffffffffffffffffffffffffffffffffffffffffff600385901b1c1916600184901b178455611255565b5f848152602081207fffffffffffffffffffffffffffffffffffffffffffffffffffffffffffffffe08516915b828110156113295787850151825560209485019460019092019101611309565b508482101561136557868401517fffffffffffffffffffffffffffffffffffffffffffffffffffffffffffffffff600387901b60f8161c191681555b50505050600190811b01905550565b5f7fffffffffffffffffffffffffffffffffffffffffffffffffffffffffffffffff82036113c9577f4e487b71000000000000000000000000000000000000000000000000000000005f52601160045260245ffd5b5060010190565b60208152816020820152818360408301375f818301604090810191909152601f9092017fffffffffffffffffffffffffffffffffffffffffffffffffffffffffffffffe0160101919050565b5f6020828403121561142c575f5ffd5b815161103c8161105556fea2646970667358221220f651fde5ab1af973da460b1ba740ece32388bcd2d6ac0de071144234820317a764736f6c634300081c0033","linkReferences":{}},"methodIdentifiers":{"CELO_DOMAIN()":"aa1bd0a4","MAILBOX()":"7dc2b8fb","addTrustedSender(address)":"84b6e3ea","addTrustedSenderBytes32(bytes32)":"df3f7ec9","enforceTrustedSenders()":"accb4e18","getMessage(bytes32)":"0139a221","getMessageAsString(bytes32)":"40adcfc7","getSenderAddress(bytes32)":"63453bba","handle(uint32,bytes32,bytes)":"56d5d475","isTrustedSender(address)":"22415f60","isTrustedSenderBytes32(bytes32)":"aa6e2653","localDomain()":"8d3638f4","messageCount()":"3dbcc8d1","owner()":"8da5cb5b","receivedMessages(bytes32)":"f69f8151","removeTrustedSender(address)":"a42b14e3","removeTrustedSenderBytes32(bytes32)":"2552c248","renounceOwnership()":"715018a6","setTrustedSenderEnforcement(bool)":"ee2117be","transferOwnership(address)":"f2fde38b","trustedSenders(bytes32)":"52ab6ae5"},"id":41}