{"abi":[{"type":"constructor","inputs":[],"stateMutability":"nonpayable"},{"type":"function","name":"getAllVerifiedUsers","inputs":[],"outputs":[{"name":"","type":"address[]","internalType":"address[]"}],"stateMutability":"view"},{"type":"function","name":"getNationalityRecord","inputs":[{"name":"_user","type":"address","internalType":"address"}],"outputs":[{"name":"","type":"tuple","internalType":"struct OpenbandsV2NationalityRegistry.NationalityRecord","components":[{"name":"userAddress","type":"address","internalType":"address"},{"name":"nationality","type":"string","internalType":"string"},{"name":"isAboveMinimumAge","type":"bool","internalType":"bool"},{"name":"isValidNationality","type":"bool","internalType":"bool"},{"name":"verifiedAt","type":"uint256","internalType":"uint256"},{"name":"isActive","type":"bool","internalType":"bool"}]}],"stateMutability":"view"},{"type":"function","name":"getTotalVerifiedUsers","inputs":[],"outputs":[{"name":"","type":"uint256","internalType":"uint256"}],"stateMutability":"view"},{"type":"function","name":"getUserNationality","inputs":[{"name":"_user","type":"address","internalType":"address"}],"outputs":[{"name":"","type":"string","internalType":"string"}],"stateMutability":"view"},{"type":"function","name":"isUserVerified","inputs":[{"name":"_user","type":"address","internalType":"address"}],"outputs":[{"name":"","type":"bool","internalType":"bool"}],"stateMutability":"view"},{"type":"function","name":"nationalityRecords","inputs":[{"name":"","type":"address","internalType":"address"}],"outputs":[{"name":"userAddress","type":"address","internalType":"address"},{"name":"nationality","type":"string","internalType":"string"},{"name":"isAboveMinimumAge","type":"bool","internalType":"bool"},{"name":"isValidNationality","type":"bool","internalType":"bool"},{"name":"verifiedAt","type":"uint256","internalType":"uint256"},{"name":"isActive","type":"bool","internalType":"bool"}],"stateMutability":"view"},{"type":"function","name":"owner","inputs":[],"outputs":[{"name":"","type":"address","internalType":"address"}],"stateMutability":"view"},{"type":"function","name":"revokeVerification","inputs":[{"name":"_user","type":"address","internalType":"address"}],"outputs":[],"stateMutability":"nonpayable"},{"type":"function","name":"storeNationalityVerification","inputs":[{"name":"_nationality","type":"string","internalType":"string"},{"name":"_isAboveMinimumAge","type":"bool","internalType":"bool"},{"name":"_isValidNationality","type":"bool","internalType":"bool"}],"outputs":[],"stateMutability":"nonpayable"},{"type":"function","name":"totalActiveVerifications","inputs":[],"outputs":[{"name":"","type":"uint256","internalType":"uint256"}],"stateMutability":"view"},{"type":"function","name":"transferOwnership","inputs":[{"name":"_newOwner","type":"address","internalType":"address"}],"outputs":[],"stateMutability":"nonpayable"},{"type":"function","name":"verifiedUsers","inputs":[{"name":"","type":"uint256","internalType":"uint256"}],"outputs":[{"name":"","type":"address","internalType":"address"}],"stateMutability":"view"},{"type":"event","name":"NationalityVerified","inputs":[{"name":"user","type":"address","indexed":true,"internalType":"address"},{"name":"nationality","type":"string","indexed":false,"internalType":"string"},{"name":"isAboveMinimumAge","type":"bool","indexed":false,"internalType":"bool"},{"name":"timestamp","type":"uint256","indexed":false,"internalType":"uint256"}],"anonymous":false},{"type":"event","name":"RecordRevoked","inputs":[{"name":"user","type":"address","indexed":true,"internalType":"address"},{"name":"timestamp","type":"uint256","indexed":false,"internalType":"uint256"}],"anonymous":false}],"bytecode":{"object":"0x6080604052348015600e575f5ffd5b50600480546001600160a01b0319163317905561131b8061002e5f395ff3fe608060405234801561000f575f5ffd5b50600436106100cf575f3560e01c80638c1f3a8c1161007d578063c179335211610058578063c1793352146101dc578063e998d2fa14610201578063f2fde38b14610214575f5ffd5b80638c1f3a8c146101915780638da5cb5b14610199578063ace417e0146101b9575f5ffd5b806354d8b38f116100ad57806354d8b38f1461013c578063843ed20c1461015c5780638964d2b214610171575f5ffd5b80630114f69e146100d357806307763ec3146100ef57806344b9fe8b14610127575b5f5ffd5b6100dc60035481565b6040519081526020015b60405180910390f35b6101026100fd366004610dcf565b610227565b60405173ffffffffffffffffffffffffffffffffffffffff90911681526020016100e6565b61012f61025c565b6040516100e69190610de6565b61014f61014a366004610e3e565b6102c9565b6040516100e69190610ec4565b61016f61016a366004610f7a565b610403565b005b61018461017f366004610e3e565b6107ec565b6040516100e6919061108a565b6001546100dc565b6004546101029073ffffffffffffffffffffffffffffffffffffffff1681565b6101cc6101c7366004610e3e565b610935565b60405190151581526020016100e6565b6101ef6101ea366004610e3e565b61099e565b6040516100e69695949392919061109c565b61016f61020f366004610e3e565b610a79565b61016f610222366004610e3e565b610c64565b60018181548110610236575f80fd5b5f9182526020909120015473ffffffffffffffffffffffffffffffffffffffff16905081565b606060018054806020026020016040519081016040528092919081815260200182805480156102bf57602002820191905f5260205f20905b815473ffffffffffffffffffffffffffffffffffffffff168152600190910190602001808311610294575b5050505050905090565b6040805160c080820183525f808352606060208085018290528486018390529084018290526080840182905260a0840182905273ffffffffffffffffffffffffffffffffffffffff8681168352828252918590208551938401909552845490911682526001840180549394929391840191610343906110f1565b80601f016020809104026020016040519081016040528092919081815260200182805461036f906110f1565b80156103ba5780601f10610391576101008083540402835291602001916103ba565b820191905f5260205f20905b81548152906001019060200180831161039d57829003601f168201915b5050509183525050600282015460ff8082161515602084015261010090910481161515604083015260038301546060830152600490920154909116151560809091015292915050565b8061046f576040517f08c379a000000000000000000000000000000000000000000000000000000000815260206004820152601f60248201527f4e6174696f6e616c69747920766572696669636174696f6e206661696c65640060448201526064015b60405180910390fd5b5f8351116104d9576040517f08c379a000000000000000000000000000000000000000000000000000000000815260206004820152601b60248201527f4e6174696f6e616c6974792063616e6e6f7420626520656d70747900000000006044820152606401610466565b60038351111561056b576040517f08c379a000000000000000000000000000000000000000000000000000000000815260206004820152602560248201527f4e6174696f6e616c697479206d75737420626520332d6c65747465722049534f60448201527f20636f64650000000000000000000000000000000000000000000000000000006064820152608401610466565b335f818152600260209081526040808320548383528184206004810154835160c0810185528781528086018b81528a1515958201959095528815156060820152426080820152600160a0820181905288885296909552845182547fffffffffffffffffffffffff00000000000000000000000000000000000000001673ffffffffffffffffffffffffffffffffffffffff909116178255925160ff92831615959290931693929091820190610620908261118e565b50604082015160028201805460608501511515610100027fffffffffffffffffffffffffffffffffffffffffffffffffffffffffffff00ff931515939093167fffffffffffffffffffffffffffffffffffffffffffffffffffffffffffff0000909116179190911790556080820151600382015560a090910151600490910180549115157fffffffffffffffffffffffffffffffffffffffffffffffffffffffffffffff00929092169190911790558115610778576001805480820182557fb10e2d527612073b26eecdfd717e6a320cf44b4afac2b0732d9fcbe2b7fa0cf60180547fffffffffffffffffffffffff00000000000000000000000000000000000000001673ffffffffffffffffffffffffffffffffffffffff86169081179091555f90815260026020526040902080547fffffffffffffffffffffffffffffffffffffffffffffffffffffffffffffff001690911790555b806107925760038054905f61078c83611294565b91905055505b8273ffffffffffffffffffffffffffffffffffffffff167f914c31fc0b27368360469a9dac6ee268c002e1e2d3dae35c4fd02273492664258787426040516107dc939291906112ac565b60405180910390a2505050505050565b73ffffffffffffffffffffffffffffffffffffffff81165f9081526020819052604090206004015460609060ff16610880576040517f08c379a000000000000000000000000000000000000000000000000000000000815260206004820152601160248201527f55736572206e6f742076657269666965640000000000000000000000000000006044820152606401610466565b73ffffffffffffffffffffffffffffffffffffffff82165f90815260208190526040902060010180546108b2906110f1565b80601f01602080910402602001604051908101604052809291908181526020018280546108de906110f1565b80156109295780601f1061090057610100808354040283529160200191610929565b820191905f5260205f20905b81548152906001019060200180831161090c57829003601f168201915b50505050509050919050565b73ffffffffffffffffffffffffffffffffffffffff81165f9081526020819052604081206004015460ff168015610998575073ffffffffffffffffffffffffffffffffffffffff82165f90815260208190526040902060020154610100900460ff165b92915050565b5f602081905290815260409020805460018201805473ffffffffffffffffffffffffffffffffffffffff90921692916109d6906110f1565b80601f0160208091040260200160405190810160405280929190818152602001828054610a02906110f1565b8015610a4d5780601f10610a2457610100808354040283529160200191610a4d565b820191905f5260205f20905b815481529060010190602001808311610a3057829003601f168201915b50505060028401546003850154600490950154939460ff80831695610100909304811694509092501686565b60045473ffffffffffffffffffffffffffffffffffffffff163314610b20576040517f08c379a000000000000000000000000000000000000000000000000000000000815260206004820152602160248201527f4f6e6c79206f776e65722063616e2063616c6c20746869732066756e6374696f60448201527f6e000000000000000000000000000000000000000000000000000000000000006064820152608401610466565b73ffffffffffffffffffffffffffffffffffffffff81165f9081526020819052604090206004015460ff16610bb1576040517f08c379a000000000000000000000000000000000000000000000000000000000815260206004820152600f60248201527f55736572206e6f742061637469766500000000000000000000000000000000006044820152606401610466565b73ffffffffffffffffffffffffffffffffffffffff81165f90815260208190526040812060040180547fffffffffffffffffffffffffffffffffffffffffffffffffffffffffffffff001690556003805491610c0c836112d0565b91905055508073ffffffffffffffffffffffffffffffffffffffff167f867ee34e7b32b226f87f4418c683b900d2c5b5ca18afd3012ed61824b530662a42604051610c5991815260200190565b60405180910390a250565b60045473ffffffffffffffffffffffffffffffffffffffff163314610d0b576040517f08c379a000000000000000000000000000000000000000000000000000000000815260206004820152602160248201527f4f6e6c79206f776e65722063616e2063616c6c20746869732066756e6374696f60448201527f6e000000000000000000000000000000000000000000000000000000000000006064820152608401610466565b73ffffffffffffffffffffffffffffffffffffffff8116610d88576040517f08c379a000000000000000000000000000000000000000000000000000000000815260206004820152600f60248201527f496e76616c6964206164647265737300000000000000000000000000000000006044820152606401610466565b600480547fffffffffffffffffffffffff00000000000000000000000000000000000000001673ffffffffffffffffffffffffffffffffffffffff92909216919091179055565b5f60208284031215610ddf575f5ffd5b5035919050565b602080825282518282018190525f918401906040840190835b81811015610e3357835173ffffffffffffffffffffffffffffffffffffffff16835260209384019390920191600101610dff565b509095945050505050565b5f60208284031215610e4e575f5ffd5b813573ffffffffffffffffffffffffffffffffffffffff81168114610e71575f5ffd5b9392505050565b5f81518084528060208401602086015e5f6020828601015260207fffffffffffffffffffffffffffffffffffffffffffffffffffffffffffffffe0601f83011685010191505092915050565b6020815273ffffffffffffffffffffffffffffffffffffffff82511660208201525f602083015160c06040840152610eff60e0840182610e78565b9050604084015115156060840152606084015115156080840152608084015160a084015260a0840151151560c08401528091505092915050565b7f4e487b71000000000000000000000000000000000000000000000000000000005f52604160045260245ffd5b80358015158114610f75575f5ffd5b919050565b5f5f5f60608486031215610f8c575f5ffd5b833567ffffffffffffffff811115610fa2575f5ffd5b8401601f81018613610fb2575f5ffd5b803567ffffffffffffffff811115610fcc57610fcc610f39565b6040517fffffffffffffffffffffffffffffffffffffffffffffffffffffffffffffffe0603f7fffffffffffffffffffffffffffffffffffffffffffffffffffffffffffffffe0601f8501160116810181811067ffffffffffffffff8211171561103857611038610f39565b60405281815282820160200188101561104f575f5ffd5b816020840160208301375f6020838301015280955050505061107360208501610f66565b915061108160408501610f66565b90509250925092565b602081525f610e716020830184610e78565b73ffffffffffffffffffffffffffffffffffffffff8716815260c060208201525f6110ca60c0830188610e78565b95151560408301525092151560608401526080830191909152151560a09091015292915050565b600181811c9082168061110557607f821691505b60208210810361113c577f4e487b71000000000000000000000000000000000000000000000000000000005f52602260045260245ffd5b50919050565b601f82111561118957805f5260205f20601f840160051c810160208510156111675750805b601f840160051c820191505b81811015611186575f8155600101611173565b50505b505050565b815167ffffffffffffffff8111156111a8576111a8610f39565b6111bc816111b684546110f1565b84611142565b6020601f8211600181146111ee575f83156111d75750848201515b5f19600385901b1c1916600184901b178455611186565b5f848152602081207fffffffffffffffffffffffffffffffffffffffffffffffffffffffffffffffe08516915b8281101561123b578785015182556020948501946001909201910161121b565b508482101561125857868401515f19600387901b60f8161c191681555b50505050600190811b01905550565b7f4e487b71000000000000000000000000000000000000000000000000000000005f52601160045260245ffd5b5f5f1982036112a5576112a5611267565b5060010190565b606081525f6112be6060830186610e78565b93151560208301525060400152919050565b5f816112de576112de611267565b505f19019056fea2646970667358221220ec3f42cc654f4ff2de9fb2f1b319f657da6ffd9a01fe0695a92bb1a8d320eba464736f6c634300081c0033","linkReferences":{}},"methodIdentifiers":{"getAllVerifiedUsers()":"44b9fe8b","getNationalityRecord(address)":"54d8b38f","getTotalVerifiedUsers()":"8c1f3a8c","getUserNationality(address)":"8964d2b2","isUserVerified(address)":"ace417e0","nationalityRecords(address)":"c1793352","owner()":"8da5cb5b","revokeVerification(address)":"e998d2fa","storeNationalityVerification(string,bool,bool)":"843ed20c","totalActiveVerifications()":"0114f69e","transferOwnership(address)":"f2fde38b","verifiedUsers(uint256)":"07763ec3"},"id":16}