{"abi":[{"type":"constructor","inputs":[{"name":"_celoSender","type":"address","internalType":"contract ICeloSender"},{"name":"_baseReceiver","type":"address","internalType":"contract IBaseReceiver"}],"stateMutability":"nonpayable"},{"type":"function","name":"CELO_DOMAIN","inputs":[],"outputs":[{"name":"","type":"uint32","internalType":"uint32"}],"stateMutability":"view"},{"type":"function","name":"baseReceiver","inputs":[],"outputs":[{"name":"","type":"address","internalType":"contract IBaseReceiver"}],"stateMutability":"view"},{"type":"function","name":"celoSender","inputs":[],"outputs":[{"name":"","type":"address","internalType":"contract ICeloSender"}],"stateMutability":"view"},{"type":"function","name":"getNationalityRecordViaSelf","inputs":[{"name":"userAddress","type":"address","internalType":"address"}],"outputs":[{"name":"","type":"tuple","internalType":"struct DataType.NationalityRecordViaSelf","components":[{"name":"nationality","type":"string","internalType":"string"},{"name":"isValidNationality","type":"bool","internalType":"bool"},{"name":"verifiedAt","type":"uint256","internalType":"uint256"},{"name":"isActive","type":"bool","internalType":"bool"},{"name":"chainId","type":"uint256","internalType":"uint256"},{"name":"userAddress","type":"address","internalType":"address"}]}],"stateMutability":"view"},{"type":"function","name":"nationalityRecordViaSelfs","inputs":[{"name":"","type":"address","internalType":"address"}],"outputs":[{"name":"nationality","type":"string","internalType":"string"},{"name":"isValidNationality","type":"bool","internalType":"bool"},{"name":"verifiedAt","type":"uint256","internalType":"uint256"},{"name":"isActive","type":"bool","internalType":"bool"},{"name":"chainId","type":"uint256","internalType":"uint256"},{"name":"userAddress","type":"address","internalType":"address"}],"stateMutability":"view"},{"type":"function","name":"receiveNationalityRecordViaSelf","inputs":[{"name":"nationalityRecordViaSelfInBytes","type":"bytes","internalType":"bytes"}],"outputs":[],"stateMutability":"nonpayable"}],"bytecode":{"object":"0x6080604052348015600e575f5ffd5b50604051610c93380380610c93833981016040819052602b916070565b5f80546001600160a01b039384166001600160a01b0319918216179091556001805492909316911617905560a3565b6001600160a01b0381168114606d575f5ffd5b50565b5f5f604083850312156080575f5ffd5b8251608981605a565b6020840151909250609881605a565b809150509250929050565b610be3806100b05f395ff3fe608060405234801561000f575f5ffd5b506004361061006f575f3560e01c80638440aafe1161004d5780638440aafe146100d6578063aa1bd0a41461011b578063b1b49a2714610139575f5ffd5b806329bc35d6146100735780634fb46c1e1461008857806382dde221146100b6575b5f5ffd5b6100866100813660046106ef565b610158565b005b61009b61009636600461078d565b6103e7565b6040516100ad969594939291906107fb565b60405180910390f35b6100c96100c436600461078d565b6104bd565b6040516100ad919061084c565b6001546100f69073ffffffffffffffffffffffffffffffffffffffff1681565b60405173ffffffffffffffffffffffffffffffffffffffff90911681526020016100ad565b61012461a4ec81565b60405163ffffffff90911681526020016100ad565b5f546100f69073ffffffffffffffffffffffffffffffffffffffff1681565b5f805473ffffffffffffffffffffffffffffffffffffffff166001546040517f56d5d47500000000000000000000000000000000000000000000000000000000815291925073ffffffffffffffffffffffffffffffffffffffff16906356d5d475906101ce9061a4ec90859087906004016108bf565b5f604051808303815f87803b1580156101e5575f5ffd5b505af11580156101f7573d5f5f3e3d5ffd5b505050505f82806020019051810190610210919061090b565b90508060a0015173ffffffffffffffffffffffffffffffffffffffff163373ffffffffffffffffffffffffffffffffffffffff16146102fb576040517f08c379a000000000000000000000000000000000000000000000000000000000815260206004820152605560248201527f412063616c6c6572206d75737420626520616e2075736572206164647265737360448201527f207768656e2061206e6174696f6e616c6974792077617320766572696669656460648201527f207669612053656c662e78797a206f6e2043656c6f0000000000000000000000608482015260a40160405180910390fd5b60a081015173ffffffffffffffffffffffffffffffffffffffff165f908152600260205260409020815182919081906103349082610a96565b5060208201516001820180549115157fffffffffffffffffffffffffffffffffffffffffffffffffffffffffffffff00928316179055604083015160028301556060830151600383018054911515919092161790556080820151600482015560a0909101516005909101805473ffffffffffffffffffffffffffffffffffffffff9092167fffffffffffffffffffffffff0000000000000000000000000000000000000000909216919091179055505050565b60026020525f9081526040902080548190610401906109f9565b80601f016020809104026020016040519081016040528092919081815260200182805461042d906109f9565b80156104785780601f1061044f57610100808354040283529160200191610478565b820191905f5260205f20905b81548152906001019060200180831161045b57829003601f168201915b5050506001840154600285015460038601546004870154600590970154959660ff938416969295509216925073ffffffffffffffffffffffffffffffffffffffff1686565b6040805160c08101825260608082525f6020830181905292820183905281018290526080810182905260a081019190915273ffffffffffffffffffffffffffffffffffffffff82165f9081526002602052604090819020815160c0810190925280548290829061052c906109f9565b80601f0160208091040260200160405190810160405280929190818152602001828054610558906109f9565b80156105a35780601f1061057a576101008083540402835291602001916105a3565b820191905f5260205f20905b81548152906001019060200180831161058657829003601f168201915b5050509183525050600182015460ff9081161515602083015260028301546040830152600383015416151560608201526004820154608082015260059091015473ffffffffffffffffffffffffffffffffffffffff1660a09091015292915050565b7f4e487b71000000000000000000000000000000000000000000000000000000005f52604160045260245ffd5b60405160c0810167ffffffffffffffff8111828210171561065557610655610605565b60405290565b604051601f82017fffffffffffffffffffffffffffffffffffffffffffffffffffffffffffffffe016810167ffffffffffffffff811182821017156106a2576106a2610605565b604052919050565b5f67ffffffffffffffff8211156106c3576106c3610605565b50601f017fffffffffffffffffffffffffffffffffffffffffffffffffffffffffffffffe01660200190565b5f602082840312156106ff575f5ffd5b813567ffffffffffffffff811115610715575f5ffd5b8201601f81018413610725575f5ffd5b8035610738610733826106aa565b61065b565b81815285602083850101111561074c575f5ffd5b816020840160208301375f91810160200191909152949350505050565b73ffffffffffffffffffffffffffffffffffffffff8116811461078a575f5ffd5b50565b5f6020828403121561079d575f5ffd5b81356107a881610769565b9392505050565b5f81518084528060208401602086015e5f6020828601015260207fffffffffffffffffffffffffffffffffffffffffffffffffffffffffffffffe0601f83011685010191505092915050565b60c081525f61080d60c08301896107af565b96151560208301525060408101949094529115156060840152608083015273ffffffffffffffffffffffffffffffffffffffff1660a090910152919050565b602081525f825160c0602084015261086760e08401826107af565b905060208401511515604084015260408401516060840152606084015115156080840152608084015160a084015273ffffffffffffffffffffffffffffffffffffffff60a08501511660c08401528091505092915050565b63ffffffff84168152826020820152606060408201525f6108e360608301846107af565b95945050505050565b805180151581146108fb575f5ffd5b919050565b80516108fb81610769565b5f6020828403121561091b575f5ffd5b815167ffffffffffffffff811115610931575f5ffd5b820160c08185031215610942575f5ffd5b61094a610632565b815167ffffffffffffffff811115610960575f5ffd5b8201601f81018613610970575f5ffd5b805161097e610733826106aa565b818152876020838501011115610992575f5ffd5b8160208401602083015e5f602083830101528084525050506109b6602083016108ec565b6020820152604082810151908201526109d1606083016108ec565b6060820152608082810151908201526109ec60a08301610900565b60a0820152949350505050565b600181811c90821680610a0d57607f821691505b602082108103610a44577f4e487b71000000000000000000000000000000000000000000000000000000005f52602260045260245ffd5b50919050565b601f821115610a9157805f5260205f20601f840160051c81016020851015610a6f5750805b601f840160051c820191505b81811015610a8e575f8155600101610a7b565b50505b505050565b815167ffffffffffffffff811115610ab057610ab0610605565b610ac481610abe84546109f9565b84610a4a565b6020601f821160018114610b15575f8315610adf5750848201515b7fffffffffffffffffffffffffffffffffffffffffffffffffffffffffffffffff600385901b1c1916600184901b178455610a8e565b5f848152602081207fffffffffffffffffffffffffffffffffffffffffffffffffffffffffffffffe08516915b82811015610b625787850151825560209485019460019092019101610b42565b5084821015610b9e57868401517fffffffffffffffffffffffffffffffffffffffffffffffffffffffffffffffff600387901b60f8161c191681555b50505050600190811b0190555056fea2646970667358221220f35c0d4168b94240dccab2ede49e234c5f06c6570f0ea43b4d961c3dcb9d146864736f6c634300081c0033","linkReferences":{}},"methodIdentifiers":{"CELO_DOMAIN()":"aa1bd0a4","baseReceiver()":"8440aafe","celoSender()":"b1b49a27","getNationalityRecordViaSelf(address)":"82dde221","nationalityRecordViaSelfs(address)":"4fb46c1e","receiveNationalityRecordViaSelf(bytes)":"29bc35d6"},"id":18}