{"abi":[{"type":"constructor","inputs":[{"name":"_celoSender","type":"address","internalType":"contract ICeloSender"},{"name":"_baseReceiver","type":"address","internalType":"contract IBaseReceiver"}],"stateMutability":"nonpayable"},{"type":"function","name":"CELO_DOMAIN","inputs":[],"outputs":[{"name":"","type":"uint32","internalType":"uint32"}],"stateMutability":"view"},{"type":"function","name":"baseReceiver","inputs":[],"outputs":[{"name":"","type":"address","internalType":"contract IBaseReceiver"}],"stateMutability":"view"},{"type":"function","name":"celoSender","inputs":[],"outputs":[{"name":"","type":"address","internalType":"contract ICeloSender"}],"stateMutability":"view"},{"type":"function","name":"getNationalityRecordViaSelf","inputs":[{"name":"userAddress","type":"address","internalType":"address"}],"outputs":[{"name":"","type":"tuple","internalType":"struct DataType.NationalityRecordViaSelf","components":[{"name":"nationality","type":"string","internalType":"string"},{"name":"isValidNationality","type":"bool","internalType":"bool"},{"name":"verifiedAt","type":"uint256","internalType":"uint256"},{"name":"isActive","type":"bool","internalType":"bool"},{"name":"chainId","type":"uint256","internalType":"uint256"},{"name":"userAddress","type":"address","internalType":"address"}]}],"stateMutability":"view"},{"type":"function","name":"nationalityRecordViaSelfs","inputs":[{"name":"","type":"address","internalType":"address"}],"outputs":[{"name":"nationality","type":"string","internalType":"string"},{"name":"isValidNationality","type":"bool","internalType":"bool"},{"name":"verifiedAt","type":"uint256","internalType":"uint256"},{"name":"isActive","type":"bool","internalType":"bool"},{"name":"chainId","type":"uint256","internalType":"uint256"},{"name":"userAddress","type":"address","internalType":"address"}],"stateMutability":"view"},{"type":"function","name":"receiveNationalityRecordViaSelf","inputs":[{"name":"nationalityRecordViaSelfInBytes","type":"bytes","internalType":"bytes"}],"outputs":[],"stateMutability":"nonpayable"}],"bytecode":{"object":"0x6080604052348015600e575f5ffd5b50604051610c2e380380610c2e833981016040819052602b916070565b5f80546001600160a01b039384166001600160a01b0319918216179091556001805492909316911617905560a3565b6001600160a01b0381168114606d575f5ffd5b50565b5f5f604083850312156080575f5ffd5b8251608981605a565b6020840151909250609881605a565b809150509250929050565b610b7e806100b05f395ff3fe608060405234801561000f575f5ffd5b506004361061006f575f3560e01c80638440aafe1161004d5780638440aafe146100d6578063aa1bd0a41461011b578063b1b49a2714610139575f5ffd5b806329bc35d6146100735780634fb46c1e1461008857806382dde221146100b6575b5f5ffd5b61008661008136600461068a565b610158565b005b61009b610096366004610728565b610382565b6040516100ad96959493929190610796565b60405180910390f35b6100c96100c4366004610728565b610458565b6040516100ad91906107e7565b6001546100f69073ffffffffffffffffffffffffffffffffffffffff1681565b60405173ffffffffffffffffffffffffffffffffffffffff90911681526020016100ad565b61012461a4ec81565b60405163ffffffff90911681526020016100ad565b5f546100f69073ffffffffffffffffffffffffffffffffffffffff1681565b5f5473ffffffffffffffffffffffffffffffffffffffff1633146101dc576040517f08c379a000000000000000000000000000000000000000000000000000000000815260206004820152601360248201527f556e617574686f72697a65642073656e64657200000000000000000000000000604482015260640160405180910390fd5b5f805473ffffffffffffffffffffffffffffffffffffffff166001546040517f56d5d47500000000000000000000000000000000000000000000000000000000815291925073ffffffffffffffffffffffffffffffffffffffff16906356d5d475906102529061a4ec908590879060040161085a565b5f604051808303815f87803b158015610269575f5ffd5b505af115801561027b573d5f5f3e3d5ffd5b505050505f8280602001905181019061029491906108a6565b60a081015173ffffffffffffffffffffffffffffffffffffffff165f9081526002602052604090208151919250829181906102cf9082610a31565b5060208201516001820180549115157fffffffffffffffffffffffffffffffffffffffffffffffffffffffffffffff00928316179055604083015160028301556060830151600383018054911515919092161790556080820151600482015560a0909101516005909101805473ffffffffffffffffffffffffffffffffffffffff9092167fffffffffffffffffffffffff0000000000000000000000000000000000000000909216919091179055505050565b60026020525f908152604090208054819061039c90610994565b80601f01602080910402602001604051908101604052809291908181526020018280546103c890610994565b80156104135780601f106103ea57610100808354040283529160200191610413565b820191905f5260205f20905b8154815290600101906020018083116103f657829003601f168201915b5050506001840154600285015460038601546004870154600590970154959660ff938416969295509216925073ffffffffffffffffffffffffffffffffffffffff1686565b6040805160c08101825260608082525f6020830181905292820183905281018290526080810182905260a081019190915273ffffffffffffffffffffffffffffffffffffffff82165f9081526002602052604090819020815160c081019092528054829082906104c790610994565b80601f01602080910402602001604051908101604052809291908181526020018280546104f390610994565b801561053e5780601f106105155761010080835404028352916020019161053e565b820191905f5260205f20905b81548152906001019060200180831161052157829003601f168201915b5050509183525050600182015460ff9081161515602083015260028301546040830152600383015416151560608201526004820154608082015260059091015473ffffffffffffffffffffffffffffffffffffffff1660a09091015292915050565b7f4e487b71000000000000000000000000000000000000000000000000000000005f52604160045260245ffd5b60405160c0810167ffffffffffffffff811182821017156105f0576105f06105a0565b60405290565b604051601f82017fffffffffffffffffffffffffffffffffffffffffffffffffffffffffffffffe016810167ffffffffffffffff8111828210171561063d5761063d6105a0565b604052919050565b5f67ffffffffffffffff82111561065e5761065e6105a0565b50601f017fffffffffffffffffffffffffffffffffffffffffffffffffffffffffffffffe01660200190565b5f6020828403121561069a575f5ffd5b813567ffffffffffffffff8111156106b0575f5ffd5b8201601f810184136106c0575f5ffd5b80356106d36106ce82610645565b6105f6565b8181528560208385010111156106e7575f5ffd5b816020840160208301375f91810160200191909152949350505050565b73ffffffffffffffffffffffffffffffffffffffff81168114610725575f5ffd5b50565b5f60208284031215610738575f5ffd5b813561074381610704565b9392505050565b5f81518084528060208401602086015e5f6020828601015260207fffffffffffffffffffffffffffffffffffffffffffffffffffffffffffffffe0601f83011685010191505092915050565b60c081525f6107a860c083018961074a565b96151560208301525060408101949094529115156060840152608083015273ffffffffffffffffffffffffffffffffffffffff1660a090910152919050565b602081525f825160c0602084015261080260e084018261074a565b905060208401511515604084015260408401516060840152606084015115156080840152608084015160a084015273ffffffffffffffffffffffffffffffffffffffff60a08501511660c08401528091505092915050565b63ffffffff84168152826020820152606060408201525f61087e606083018461074a565b95945050505050565b80518015158114610896575f5ffd5b919050565b805161089681610704565b5f602082840312156108b6575f5ffd5b815167ffffffffffffffff8111156108cc575f5ffd5b820160c081850312156108dd575f5ffd5b6108e56105cd565b815167ffffffffffffffff8111156108fb575f5ffd5b8201601f8101861361090b575f5ffd5b80516109196106ce82610645565b81815287602083850101111561092d575f5ffd5b8160208401602083015e5f6020838301015280845250505061095160208301610887565b60208201526040828101519082015261096c60608301610887565b60608201526080828101519082015261098760a0830161089b565b60a0820152949350505050565b600181811c908216806109a857607f821691505b6020821081036109df577f4e487b71000000000000000000000000000000000000000000000000000000005f52602260045260245ffd5b50919050565b601f821115610a2c57805f5260205f20601f840160051c81016020851015610a0a5750805b601f840160051c820191505b81811015610a29575f8155600101610a16565b50505b505050565b815167ffffffffffffffff811115610a4b57610a4b6105a0565b610a5f81610a598454610994565b846109e5565b6020601f821160018114610ab0575f8315610a7a5750848201515b7fffffffffffffffffffffffffffffffffffffffffffffffffffffffffffffffff600385901b1c1916600184901b178455610a29565b5f848152602081207fffffffffffffffffffffffffffffffffffffffffffffffffffffffffffffffe08516915b82811015610afd5787850151825560209485019460019092019101610add565b5084821015610b3957868401517fffffffffffffffffffffffffffffffffffffffffffffffffffffffffffffffff600387901b60f8161c191681555b50505050600190811b0190555056fea264697066735822122020bf76986973af16e7a78720b6dd025c9c998a5467b3fe2b5340c01e0009787864736f6c634300081c0033","linkReferences":{}},"methodIdentifiers":{"CELO_DOMAIN()":"aa1bd0a4","baseReceiver()":"8440aafe","celoSender()":"b1b49a27","getNationalityRecordViaSelf(address)":"82dde221","nationalityRecordViaSelfs(address)":"4fb46c1e","receiveNationalityRecordViaSelf(bytes)":"29bc35d6"},"id":49}